:020000040000FA
:080000008A8E219F000E0AD038
:0400080080EF04F091
:08001800C0EF04F0600E0E01C0
:10002000D86F000EDA6F000EDC6F080EDE6F1F0E49
:10003000DD6F0E01E59D0F018A9C8A8E219F208F26
:100040000E01170EB56F090EFD6F0F010A0E9F6F9F
:10005000900E9D6F240E9E6F400E9B6F030E9C6F43
:10006000819C818E9D888FAE0DD0F66E0A0EF76E44
:1000700000D0000EF86E0900F53C00EF05F0090015
:10008000F53CFBD720EE00F019D90F0AFDE10F0E69
:1000900010D900EE04F0086A11D90F0AF8E00250F6
:1000A000040A07E00250050A01E108D902C0ECFF8A
:1000B000F3D710EE05F0006A016AEDCFF4FFE650C9
:1000C0003CD8E250EA62FBD7E150E962F8D7015030
:1000D000F462DAD70050EF62D7D7006A016A06509F
:1000E000F66E7E6E0750F76E7F6E08C0F8FF00EE6A
:1000F0000BF01F0E086403D0818C818E02D0819C8E
:08010000818E0A0E0560C0D7D4
:10011000F9500544F92627D02FD039D04FD079D0C7
:10012000A5D0A5D0A5D0A9D7FF000400F2BA12002F
:100130008FBEFCD78FAEFED71200011800C001F0B1
:10014000006EE83A0F0B001A0038F00B011A003865
:10015000E844011AE00B011A001A12000008010518
:10016000FF20000000005C0EF66E010EF76E000E20
:10017000F86E0A0E0A6E0B6A0900F5508ED8DDDFA4
:100180000A06000E0B5A0A500B10F6E17FD0090048
:10019000F550D3DFF6507F0BFAE100504DEC01F043
:1001A00001504DEC01F00A06000E0B5A0A500B10DC
:1001B000EEE170D0FF00FF00FF00FF00800EF6169A
:1001C000000EF65C000EF758020EF85802E6816A3F
:1001D00014D0000EF65C000EF758000EF8580CE62E
:1001E000000EF65C080EF758000EF85805E705D02B
:1001F000FF00FF00FF00FF007ED8800EF65EE86A79
:10020000F75AF85A0A2EDAD73DD0FF00FF00FF0058
:10021000FF00800EF616000EF65C000EF758020E78
:10022000F85802E6816A15D0000EF65C000EF75809
:10023000000EF8580DE6000EF65C080EF758000E9A
:10024000F85806E7816A05D0FF00FF00FF00FF00B5
:1002500051D8EECFF5FF0D00F6507F0BFAE10A0002
:100260003CD8090047D80A2ED4D70CD00BD00AD0DE
:10027000C40E816E0800EE50F5622DD80B000A2ED8
:10028000FAD700D0816A055008D857DF005005D84A
:10029000015003D8040E0DD8F7D6036E0F0A06E0FE
:1002A0000350040A03E00350050A02E1050E01D8D9
:1002B00003500400CDA9FED79A6E12009DB2FF0034
:1002C00004000E01CDABFCD79950026E1200FF0066
:1002D000FF00FF00816AF56E0C00819C818E818495
:1002E0008198F29E550E826EAA0E826E8182F28EE7
:1002F000819412001200819C818E81848188F29EFB
:10030000550E826EAA0E826E8182F28E8194120048
:100800000A000100080000010900010008000002C0
:1008100009000100080000040A00010008010000AE
:100820000A000100080000050A000100000200069D
:100830000A000100000200070000000C0200000096
:10088000436F7079726967687420323032312C207E
:100890004D61726B20412E20466C656D696E67005C
:0E0900000C0EFE6E480EFD6E0E01CA91100028
:0E0980000A0EFE6E100EFD6E0E01CA931000E0
:100A000037EC08F0A6EC08F00F0E8912889C8D9C3C
:100A10000001F29EF29C0E01CA91CA9300018F98C8
:100A2000DAEC08F0E3EC08F0070E116E00EE30F09F
:100A3000000E2064CBD08DA4FED78DB8FED78DB626
:100A4000FED78DA6FED70F0E8E14006E010E00622B
:100A500038D0000EEBCF84FF8DB6FED7896A8F8821
:100A60008DA6FED70F0E8912010EEBCF84FF8DB637
:100A7000FED7896A8DA6FED70F0E8912020EEBCF24
:100A800084FF8DB6FED7896A8DA6FED70F0E891218
:100A9000030EEBCF84FF8DB6FED7896A8DA6FED7F5
:100AA0000F0E8912040EEBCF84FF8DB6FED7896A34
:100AB0008DA6FED70F0E89128F98050EEBB086D04B
:100AC000BCD7080E006280D08F888DB6FED78DA669
:100AD000FED70F0E8E14026E8DB6FED71D688DA642
:100AE000FED70F0E8E14E8380212D8900230126E24
:100AF0008DB6FED78DA6FED70F0E8E14036E146A28
:100B00008DB6FED703506A631D6A8DA6FED70F0E01
:100B10008E146B631D6AE8380312D890033001E32A
:100B2000128E136E139C8DB6FED7000000000000DD
:100B30000000146A0F0E8E14046E6C631D6A033479
:100B40000434DBCF0EF00E3413120EBE14800334C7
:100B500004340E6E8F98060EEBCF0DF0000EEBCF27
:100B60000CF00E500DC0DBFF0A0E0C6016D0200EEC
:100B70000D260E50E82A0DC0DBFF090E0C600DD0CB
:100B80000E50200E0D260E50020F0DC0DBFF200E62
:100B90000D260E50030F0DC0DBFF050EEBB016D077
:100BA000080EE926114E12D0050EEBB20FD0070E3B
:100BB000EBCF1CF0000E1C6401D006D020B204D094
:100BC000050EEBB003D0E9D78DB437D710EE58F04F
:100BD000050EE3A20ED0C00E1C6E060EE3501CC024
:100BE000DBFF080EE126E00E1C6E060EE3501CC073
:100BF000DBFF0E01CA91CA9300010168F28EF28CEC
:100C000007D000018E6AF29E0E01D79F030000D725
:100C10000001126A136A146A116A0E01CDAB05D085
:100C20009DA403D08FBE01D0FF000E01CDBB2DEFE0
:100C30000AF00001122A03E3132A01E3142AD8B0B0
:100C4000112A11B8DED7E9D700010F0E8E14F28EEB
:0A0C5000006F0D0EFA6E0044F96EFD
:100D00002BD02AD0C6D02ED164D072D080D0E8D0DB
:100D100023D09CD1A0D120D09FD11ED09ED19ED1D6
:100D200008EF06F001EF06F028EF06F008EF05F0F7
:100D30002DEF0AF02FEC0EF036EC0EF04AEC0EF030
:100D400069EC0EF0A4EC0EF0BEEC0EF0CEEC0EF062
:100D5000DBEC0EF0E8EC0EF05BD78DA459D71BB09E
:100D600057D78DB6FED7000EEBCF84FF896A8DA6CC
:100D7000FED70F0E8912010EEBCF84FF8DB6FED782
:100D8000896A8DA6FED70F0E8912020EEBCF84FF63
:100D90008DB6FED7896A8DA6FED70F0E8912030E77
:100DA000EBCF84FF8DB6FED7896A8DA6FED70F0ED6
:100DB0008912040EEBCF84FF8DB6FED7896A8DA60B
:100DC000FED70F0E8912040EEBB61B68080EE9263B
:100DD0001FD78DB6FED71DA01BD710EE20F00550F3
:100DE0000F0BE1268DA6FED70F0E8E14E66E10D7E0
:100DF0008DB6FED71DA00CD710EE20F008500F0BBB
:100E0000E1268DA6FED70F0E8E14E66E01D78DB6A5
:100E1000FED78DA6FED70F0E8E14056E8DB6FED7AB
:100E20001D688DA6FED70F0E8E14E8380512D890D7
:100E30000530186E8DB6FED78DA6FED70F0E8E1418
:100E4000066E1A6A8DB6FED706506A631D6A8DA6B5
:100E5000FED70F0E8E146B631D6AE8380612D89009
:100E6000063001E3188E196E199C8DB6FED700006E
:100E70000000000000001A6A0F0E8E14076E6C63EB
:100E80001D6A06340734DBCF10F01034191210BE7F
:100E90001A808DB6FED7000E1064BAD68F8818C09F
:100EA000F6FF19C0F7FF1AC0F8FF080005B0F53AC1
:100EB000F5CF84FF8F988DA6FED78DB6FED7896AB1
:100EC000052A05A00B0005B0F53AF6CF18F0F7CFCC
:100ED00019F0F8CF1AF00F0E8912F5CF84FFEDD775
:100EE0008DB6FED78DA6FED70F0E8E14086E8DB66A
:100EF000FED71D688DA6FED70F0E8E14E838081297
:100F0000D8900830156E8DB6FED78DA6FED70F0E81
:100F10008E14096E176A8DB6FED709506A631D6A72
:100F20008DA6FED70F0E8E146B631D6AE83809126A
:100F3000D890093001E3158E166E169C8DB6FED73B
:100F40000000000000000000176A0F0E8E140A6EE9
:100F50006C631D6A09340A34DBCF0FF00F341612AC
:100F60000FBE17808DB6FED7000E0F6451D68F8846
:100F700015C0F6FF16C0F7FF17C0F8FF080008B04D
:100F8000F53AF5CF84FF8F988DA6FED78DB6FED7A4
:100F9000896A082A08A00B0008B0F53AF6CF15F0C8
:100FA000F7CF16F0F8CF17F00F0E8912F5CF84FFA8
:100FB000EDD78DA42DD68DB6FED78DA6FED70F0EFC
:100FC0008E14026E8DB6FED71D688DA6FED70F0E4D
:100FD0008E14E8380212D8900230126E8DB6FED709
:100FE0008DA6FED70F0E8E14036E146A8DB6FED733
:100FF00003506A631D6A8DA6FED70F0E8E146B63B5
:101000001D6AE8380312D890033001E3128E136E84
:10101000139C8DB6FED70000000000000000146A8B
:101020000F0E8E14046E6C631D6A03340434DBCF20
:101030000EF00E3413120EBE1480060EE3CF0DF028
:101040000E500DC0DBFF080EE126E2D5000E0F6248
:10105000DFD5016ADDD5DCD5DBD5DAD5F29EF29C91
:101060008F88DAEC08F0E3EC08F08F98D1D40E0109
:10107000FF0EE16FE26FE36FE46FE56FE66FE19FF4
:10108000E195E1910F01836B846B856BFF0E886F97
:10109000896F8A6F0F01E00E116FF00E196F000E4D
:1010A000216F106B186B206B2D6B0F6B176B1F6B09
:1010B000FF0E0E6F166B1E6FFF0E0D6F156F1D6FFF
:1010C000600E0E01D86F000EDA6F000EDC6F080E96
:1010D000DE6F1F0EDD6F0F011F0E8816CF0E8916F3
:1010E000000E8A160E01E59D0F018A9C8A8E219FB3
:1010F000208F0E01170EB56F090EFD6F0F010A0E3E
:101100009F6F900E9D6F240E9E6F400E9B6F030E7F
:101110009C6F0F01F28B0E01BA81BA930F010A99ED
:101120000B890C990A950B950C850E01040EA16F85
:10113000020EA26F0E01CA91CA910F01F291F283C1
:101140000E01C281C283819C818E12000001000EBB
:10115000206E080E080DF3CF11F0080EF76E000E8A
:10116000F66E00EE30F00900F550EE6E112EFBD752
:1011700000EE30F0070E116E050EEBB212D0070E26
:10118000EBCF1CF01C421C421C42000E1C6202D021
:10119000100E1C6E060E1CC0EBFF080EE926112E69
:1011A000EBD7060EE9261C0EEF6E080EE9261D0E83
:1011B000EF6E12000001016A1D6A1B6A00EE30F03A
:1011C00010EE30F0120020EEE0F0200EDB6AE82C8A
:1011D000FDD7DB6A120054797065203F20666F727C
:1011E0002068656C700D0D0000003F200D524F4DC2
:1011F000205B736C6F742073697A6520626C6F6317
:101200006B5D0D000000504C55472059206F722037
:101210004E0D0000455241534520626C6F636B20B8
:101220000D000000494D41474520626C6F636B2003
:101230000D0000004C41535420736C6F74200D005E
:101240000000484152442059206F72204E200D006A
:101250000000434F4D4D49542059206F72204E20BD
:101260000D000000515549540D0D000051554954D1
:101270000D4279650D0D0000524F4D2000003136B2
:101280004B20000033324B20000036344B2000004E
:1012900043484950200000000D0D524F4D204C494D
:1012A00053540D0000003020000031200000322097
:1012B00000003320000034200000352000003620DC
:1012C0000000372000004C41535400004841524474
:1012D00000004348495020000000454F4D202000A9
:1012E0000000434F4D4D49543F2028592F6E29206F
:1012F00000000D436F6E6669726D65640D0D000030
:101300000D43616E63656C6C65640D0D00000D43EB
:101310006F756C646E2774206572617365207365E8
:1013200063746F720D0D0000494D41474520000068
:101330004572726F722077726974696E6720776F79
:1013400072640D0000004552415345200000457273
:101350006173696E672E2E2E0D000000446F6E655E
:101360000D0000004572726F722065726173696EC4
:101370006720736563746F720D0000004C41535415
:101380002000000048415244200000000D486172D6
:101390006420524F4D2070726573656E740D0000AD
:1013A0000D4861726420524F4D206E6F7420707230
:1013B0006573656E740D0000584543555445202DE6
:1013C000205472616E736665722050726F6365732C
:1013D000736F7220436F6E74726F6C0D5741524E73
:1013E000494E4721204D616B6520737572652076EB
:1013F000616C69642050494320636F6465206973A0
:1014000020696E20626C6F636B203021210D28599A
:101410002F4E29200000504C554720524F4D73202D
:10142000494E3F2028592F4E292000000D4D61695B
:101430006E20524F4D7320706C756767656420692C
:101440006E0D00000D416C6C20524F4D7320756E77
:10145000706C75676765640D00000E01270E0F0143
:10146000F29EF29C0E01CD9B99CFE8FF0001D60EB3
:10147000F66E110EF76EF86A22EC0EF00F019DA2C7
:1014800002D09D9E9D8E0E01CDABFED799CFE8FF79
:101490000001216E510E216201D04ED0710E2162E9
:1014A00001D04AD0500E216201D052D0700E21627C
:1014B00001D04ED03F0E216201D075D0480E21627E
:1014C00001D0C8D0680E216201D0C4D04C0E216278
:1014D00001D00DD16C0E216201D009D1520E2162D2
:1014E00001D096D2720E216201D092D2430E2162B7
:1014F00001D070D1630E216201D06CD1450E216202
:1015000001D01CD1650E216201D018D1490E216293
:1015100001D0C5D1690E216201D0C1D1580E21621E
:1015200001D07BD0780E216201D077D00D0E2162E0
:10153000A5D72FEC0EF0A2D700016C0EF66E120E9E
:10154000F76EF86A22EC0EF0F28EF28C08EF06F0DD
:10155000160EF66E140EF76EF86A22EC0EF00E01FF
:10156000CDABFED799CFE8FF0001226ED4DBF0E3CC
:101570000E01CDA9FED799CF9AFF0001E8A00AD0AD
:10158000010E206E2C0EF66E140EF76EF86A22EC29
:101590000EF074D7206A440EF66E140EF76EF86AD9
:1015A00022EC0EF06BD70001EA0EF66E110EF76E0C
:1015B000F86A22EC0EF0060EF66E120EF76EF86A5E
:1015C00022EC0EF0140EF66E120EF76EF86A22EC94
:1015D0000EF0240EF66E120EF76EF86A22EC0EF084
:1015E000340EF66E120EF76EF86A22EC0EF0420E12
:1015F000F66E120EF76EF86A22EC0EF0520EF66ED0
:10160000120EF76EF86A22EC0EF0640EF66E120EF1
:10161000F76EF86A22EC0EF031D70001B80EF66EC4
:10162000130EF76EF86A22EC0EF00E01CDABFED76A
:1016300099CFE8FF0001226E22506DDBF6E3E8B09F
:1016400000EF10F0000EF66E130EF76EF86A22EC43
:101650000EF014D70001840EF66E130EF76EF86AC2
:1016600022EC0EF00E01CDABFED799CFE8FF0001C2
:10167000226E0D0E22621BD00E01CDA9FED799CF8E
:101680009AFF00018C0EF66E130EF76EF86A22ECCC
:101690000EF000EE30F0080E050DF3CFE8FFE9265E
:1016A000050EEB82080EE926050EEB82E7D62250E6
:1016B00032DBD0E3E8B0E0D70E01CDA9FED799CF59
:1016C0009AFF0001A00EF66E130EF76EF86A22EC78
:1016D0000EF000EE30F0080E050DF3CFE8FFE9261E
:1016E000050EEB92080EE926050EEB92C7D6000117
:1016F0007C0EF66E130EF76EF86A22EC0EF036ECE6
:101700000EF0226E0E01CDA9FED799CF9AFF0D0ED5
:10171000CDA9FED7E8CF9AFF010E116E00EE30F092
:10172000050EEB901150226202D0050EEB80112ABB
:10173000080EE926070E1162F3D7A0D60001460E67
:10174000F66E130EF76EF86A22EC0EF04AEC0EF00D
:10175000226E0E01CDA9FED799CF9AFF0D0ECDA90D
:10176000FED7E8CF9AFF00014E0EF66E130EF76E0D
:10177000F86A22EC0EF0F66AF86A000E226205D0D2
:10178000400E116E200EF76E0BD0800E116E22509F
:10179000E83AD890E836E836F76EF86A01E3F88060
:1017A000EDDA0FE2800EF626000EF722112EF8D7A2
:1017B00000015C0EF66E130EF76EF86A22EC0EF066
:1017C0005DD60001640EF66E130EF76EF86A22EC19
:1017D0000EF054D60001E20EF66E120EF76EF86AA5
:1017E00022EC0EF00E01CDABFED799CFE8FF000141
:1017F000226E0D0E226201D02DD00E01CDA9FED792
:1018000099CF9AFF0001F20EF66E120EF76EF86A8B
:1018100022EC0EF0080EF76EF66AF86ABFDA080ED0
:10182000F76EF66AF86AAADA28E2C5DA400E116E97
:1018300000EE30F0080EF76EF66AF86AEECFF5FFAC
:101840000D00112EFBD7080EF76EF66AF86AC0DAA3
:101850001DE214D622505FDAC5E3E8B0CED70E0100
:10186000CDA9FED799CF9AFF0001000EF66E130E98
:10187000F76EF86A22EC0EF001D600010E0EF66E3D
:10188000130EF76EF86A22EC0EF0F8D50001300E58
:10189000F66E130EF76EF86A22EC0EF0EFD500012B
:1018A000280EF66E130EF76EF86A22EC0EF04AEC74
:1018B0000EF0226E0E01CDA9FED799CF9AFF0D0E24
:1018C000CDA9FED7E8CF9AFF000101EE00F0116A22
:1018D000000E226205D0F66A200EF76EF86A0AD072
:1018E0002250E83AD890E836E836F76EF86A01E315
:1018F000F880F66A0E01CDABFED799CF23F0000138
:101900000D0E236201D025D00A0E236201D021D012
:101910001A0E236201D073D0235069EC0EF0EAE274
:10192000246E243A0E01CDABFED799CF23F00001EF
:101930000D0E236200D00A0E236201D0F3D723508C
:1019400069EC0EF0EFE2241224C0EFFFE92A112A1D
:10195000D1D7000E116453D00E01CDA9FED7130EBE
:101960009A6E000101EE00F0EFD912E20E01CDA94E
:10197000FED7110E9A6E000101EE00F00E01CDAB04
:10198000FED799CF23F000010A0E2362C1D7B2D748
:101990000001300EF66E130EF76EF86A22EC0EF0B0
:1019A0000E01CDA9FED7110E9A6E0E01CDABFED75A
:1019B00099CF23F000010D0E2362116A112A030E44
:1019C000116001D0E5D70001300EF66E130EF76EF0
:1019D000F86A22EC0EF00E01CDA9FED7110E9A6E18
:1019E0000001300EF66E130EF76EF86A22EC0EF060
:1019F0000E01CDA9FED7110E9A6E00013FD5000150
:101A00005C0EF66E130EF76EF86A22EC0EF036D509
:101A10000001780EF66E120EF76EF86A22EC0EF0E8
:101A20000E01CDABFED799CFE8FF0001226E0D0E5F
:101A3000226201D08ED0300E2264F2D7380E22609E
:101A4000EFD70E01CDA9FED799CF9AFF200ECDA9D1
:101A5000FED7E8CF9AFF300E225E0E01CDABFED747
:101A600099CFE8FF0001236E0D0E236201D071D0E3
:101A7000310E23620CD07E0EF66E120EF76EF86AEF
:101A800022EC0EF00A0E236E080E246E3BD0330EAD
:101A900023620CD0840EF66E120EF76EF86A22ECFA
:101AA0000EF0090E236E080E246E2CD0360E236223
:101AB0000CD08A0EF66E120EF76EF86A22EC0EF05B
:101AC000080E236E080E246E1DD0630E23620CD008
:101AD000900EF66E120EF76EF86A22EC0EF00A0EF9
:101AE000236E000E246E0ED0430E2362B6D7900EE6
:101AF000F66E120EF76EF86A22EC0EF00A0E236EE6
:101B0000000E246E4AEC0EF0256E0E01CDA9FED714
:101B100099CF9AFF0D0ECDA9FED7E8CF9AFF22509C
:101B2000E806080D00EE30F0F350E926000E23C061
:101B3000EBFF040E24C0EBFF070E25C0EBFF254290
:101B400025422542000E25642588060E25C0EBFFA0
:101B500095D40001980EF66E120EF76EF86A22EC1C
:101B60000EF000EE30F0070E116E310E1C6E780E86
:101B7000F66E120EF76EF86A22EC0EF01C502FEC87
:101B80000EF0200E2FEC0EF01C2A000EEBCF0CF006
:101B90000A0E0C6208D07E0EF66E120EF76EF86A10
:101BA00022EC0EF012D0090E0C6208D0840EF66EF4
:101BB000120EF76EF86A22EC0EF007D08A0EF66E5F
:101BC000120EF76EF86A22EC0EF0070EEBCFE8FF6C
:101BD000300F2FEC0EF0200E2FEC0EF0040EEBA6C3
:101BE00012EC0EF0040EEBB61AEC0EF0050EEBA0A4
:101BF00008D0C60EF66E120EF76EF86A22EC0EF0E2
:101C000009D0EBA207D0CC0EF66E120EF76EF86A72
:101C100022EC0EF00D0E2FEC0EF0080EE926112E20
:101C2000A6D72CD4D20EF66E120EF76EF86A22ECFE
:101C30000EF01200DA0EF66E120EF76EF86A22EC53
:101C40000EF01200819C818E0900000E0001F564E7
:101C500012000E01CDA9FED7F5CF9AFFF3D70E01E2
:101C6000CDA9FED7E8CF9AFF000112000E01CDAB3F
:101C7000FED799CFE8FF00011F6E1B0E1F6201D037
:101C800013D0300E1F64F2D7380E1F60EFD7300E1E
:101C90001F5C12000E01CDABFED799CFE8FF00010B
:101CA0001F6E1B0E1F620CD0000EF66E130EF76E29
:101CB000F86A22EC0EF0140EFE6E7C0EFD6E120021
:101CC0002F0E1F64E7D7380E1F60E4D7300E1F5C5D
:101CD00012001F6E00012F0E1F641BD03A0E1F60F2
:101CE00004D0300E1F5CD8901200400E1F6411D03B
:101CF000470E1F6004D0370E1F5CD8901200600E94
:101D00001F6407D0670E1F6004D0570E1F5CD89069
:101D10001200D88012001C6E590E226201D00ED023
:101D2000790E1C6201D00AD04E0E1C6201D003D085
:101D30006E0E1C6206D0000ED8801200010ED880F4
:101D40001200000ED8901200EECFF5FF0D00112EFC
:101D5000FBD70A00819C818E81848198F29E550E6A
:101D6000826EAA0E826E8182F28E8194090081B603
:101D700002D0D8901200D88012001200D890819C16
:101D8000818E81848188F29E550E826EAA0E826EAB
:101D90008182F28E819481B6D8801200819C818EDE
:101DA00012EE00F0800E116E0900F5CFE6FF112E45
:101DB000FBD7D8901200819C818E12EE00F0800E2D
:101DC000116EE6CFF5FF0D00112EFBD7D890120053
:101DD000D890819C818E81848198F29E550E826E6E
:101DE000AA0E826E8182F28E819481B6D880120012
:101DF000286329204D61726B20412E20466C656D51
:081E0000696E672032303231B7
:102000003BDDDDED554C49423532202008E2001819
:1020100010150121E1312015B0F2290200000B60FA
:10202000035000055DD0055DD0056CC006B0400EC4
:102030000DD110266112268117B5211CD3311DD375
:10204000311DD301910100006F03D009940AF09073
:10205000C19E002D105509F05DB04D00CD06CE0893
:10206000F07D808800AF1AD60AF0BDF0B1009F164F
:10207000240BF0B561B200EF154F0DF03731BE0003
:102080007F0DE80BF0CCF0BD002F14D50DF09FD1E3
:10209000C2004F0E300CF07821E4005F18660FF09C
:1020A000D3513500301D4C0300D3313400301D3A7C
:1020B000030000900101DF113310F050D004013F04
:1020C00004C80FF026A1F8003F1D040300D3B12F70
:1020D00000301DF20200298016012D1C0112D01CB7
:1020E0004021013D0F8714D0B0F02A016F11FB1B76
:1020F000C00DF1C401DD14BB1CF00B60D3016F03F4
:10210000FD1FD0D3F12800C0087D20F017E444441F
:1021100082D142414E4E4552242829C4943445254B
:1021200092425245414B2039C4F434B49492434F07
:102130004D50241B5984F52445A2B1494E4C494EBB
:102140004504BD5494E514D44452B04B45594E5502
:102150004D06BD549435C50445B2F24B455957411F
:1021600049542401C99434454542B24C5452494D16
:102170002408C7743544E2904C575243240DDB5475
:10218000D424542415B14D4F4449465923D73475AE
:102190004432504F464626F3E454524F5224192DF0
:1021A000556425944445C271524556240C27F54484
:1021B00045F2D0524F57434F4C242727054545B28F
:1021C000B0525452494D2409392594444522715343
:1021D000424954133B3524F5C4C424705350414E36
:1021E000103745454472905452494D240A5DE52408
:1021F000245514B414D26D697373696E672AF19F04
:10220000961813F869F133B19F163CE6081112B124
:102210003115DC31876B1C3115B0D3633A42494C20
:10222000552051DD00C8160E233388FF8F11231669
:1022300088FF8F1113FB5DC8DB1BC1D712F431C3BC
:102240001A13418B3D3005E6FF0F00003310E1D833
:102250009A9330C1911624131B694135219F1608AA
:10226000C87D0D573C12D000173A951FB590C00598
:10227000D5DE10950017B0BDD738134EC738110BF7
:1022800016817D757C6853C01188CFD20E607112A3
:10229000733114B02C31152C701D5EC11173118374
:1022A0006B8C3117B469761E189D418C0527000D83
:1022B00070FBB22FFBE2167B962F517C2801833DE9
:1022C0004905F9FFFF3400072AF75E07602D233C1C
:1022D000846B6631D7C712B031C4CE1E901119532A
:1022E0001D2705132369D67342E035319266F3DC6E
:1022F000A879D23230B8D11173211953F89A8ED0FF
:1023000014184158B2130BD89393101C411B73310E
:1023100085FB0070A8AD1BB13112202EA8FA1C90CD
:102320006E6E6E5D230A88DF9711951B27111203CD
:1023300011897F171B111B53488675971C018374E5
:10234000F71B01821FD30B011173971E133E871ECB
:102350001320071E1308871DFA12116D1180E1EC7E
:1023600084021613417FB90117014E4E0150E2D786
:102370001AD8498B7188D18266046E5135118B1F32
:102380006C091132F1D5153B472F41BE16E94CD0EF
:102390001486411838410E8B14B0418C8F8901F896
:1023A000994C3181912692F81005701CD1704D51D5
:1023B000052BD416EB472F41FEF21218410ED61210
:1023C00007419FE618E711F57AE03010510D16FA33
:1023D00060F83A8A71E270DB735E70E200D77A7A55
:1023E000709B734A70CE00D705F6F5D5A43C2988BA
:1023F000A0F4AA704EA0BCCA7A6B731A709E00D764
:10240000A0AE17034735D8488A10A413F169F61E09
:1024100016311643F18BF81254D878F1E074540356
:102420000481CF900E68D790840858A60C717FBEA7
:10243000C24C0D2D135FB80A60983DA280D8BA181F
:102440001180131BD83C1C30A280D8411AD179705E
:1024500002D4850D7B0FB178F412E4B07827000B1D
:1024600081DF690313F1690280BDE202F8BA3670B8
:10247000E57FDA7FD68FAF6B035701A57D0E50063F
:102480007700D8723180EF2A030510733115A0F858
:10249000D93F401478F080130575803700111A5326
:1024A00058846DE60214818F571C3185A5F89B8DE9
:1024B000806F591C711134C11173AC31D174BC1EC1
:1024C0001567508311F80CE910F777182D13A8B889
:1024D0006A6166DC82AF090FC16F20838AED571CE9
:1024E000F804AC11002D080F60026EF89AF0008716
:1024F000D010015111C18FEF381B4719B62D18713B
:102500000E711851073841D3100040718F6F52037C
:10251000F80A25F18ECFB2091188BF9A09D806981A
:1025200080FFCA0E43560290EBBD01B04F4F4FB82B
:10253000EE8A9F341B11A82DACF8D2B24197D86E09
:102540002AA0AFFFF4FF8F1FF01A86F1801F6518D5
:10255000417371C05C040D1DEA183B472F41DA320C
:10256000F1B526E941D0A9AE4380F4C2C21243417D
:102570009EE609CC75DE10CA471F84811364B048FB
:10258000011B44F82E2160FE8CDD8F0E57FF717FFA
:102590008E450036AE00311680311790F8C20640E5
:1025A00015111953111843D8A8AC811F7200B6FD3C
:1025B000F85D9511FC31179F592F4115535171D872
:1025C000F8F5807D581CD8326880BD311BD838BDE5
:1025D00080112D13525D31164B592F4112CA6D1FB8
:1025E0006514B03117530CB8D6D11005809F14185C
:1025F000111B451443960E562C4421588014860115
:10260000442148600A4014820558A1E4132049CAB5
:1026100071758F8A1331C71273C111F471D1A70F6D
:1026200067F5FA183301C01010011213187D688481
:102630000620C1819A0F419F7607DCD51E173117FE
:10264000A01118536871819A12419F760A71C15D79
:10265000ED5C1111A1F8EEB011919E3175FBA30F45
:102660004DFBB00F020A1CFC5171D83CF24011F82E
:102670008EB361EE4F1131178031A50FE7E918BC19
:102680000FFBB00F13415D135A7D1320EA1A1C7122
:10269000A1C58411F4E9119F7EEC6A12D4351E8124
:1026A0003165908F443248610B8044325881D08F1D
:1026B000291CF73314713F4312499D500AF6880DC7
:1026C0004E0201703CA30F87E0181C103117A02C9C
:1026D0002C3175F1AD2F31C712B018DCD6170111AE
:1026E0001B53CCF4C04C1FC1C15FF5111B536604D2
:1026F00078311F1CA513A13114915DFCD4CD4DE29E
:10270000C111F4411A1669A68016D7C5C05DEA78D2
:10271000A17C911231311713AE187C5A6D938E241F
:1027200072624209272664602A1F10FA703D8DCA22
:1027300009C16F6E1E203117532C0118B07D11890D
:102740009F341BBD2E94723612218D111013B1943B
:10275000F512243110F63182AB09D84D941011CC0A
:10276000014112111B33F8EEB051E711137331E53B
:10277000DA68D58D2472D871B44111471B584110C5
:10278000386160748E148F4C441F10FA707D1C20C9
:10279000A8181491B8AEE01290558F17068719113A
:1027A00071911121A718111291AEE717789110219C
:1027B000271711D2684F8D8824840508FDFAA2E7F7
:1027C000018929669813731641616711A58541A88F
:1027D0002C95840D4A9CC4454B1491CA1690770ED3
:1027E0002473E7502B1884CA234A441D18AC6C0884
:1027F000FD1189C01590770B6560867DB350F71188
:10280000D9A60F07B90180AAE36CE4ED4AD93117C4
:1028100053AC3113F43D7E520A4E0E6A57F6EB5E0E
:102820004E785012131110732C31A70FE07F697A84
:1028300020BE4066C6495AB16475D105FED79D9643
:102840000AFFE07F3DE0FF411D1311602A8C4833F1
:102850004860D28EDDD80B718F3D221BB1BBF812C0
:102860002431001123B1BBF8120410FAD1882218C8
:102870008DD131C7C919533184231715111C411A41
:10288000F44119C461C15DEB30147116A12F6D18AC
:10289000DEC74F1E7241AB43AA86E1D0451FD471FB
:1028A00051E1944211FA70DE80C1CC7411F4EB1E38
:1028B000D47151EE11194311185302C8CC0E4422A1
:1028C0006707DC141E1C8111A4410F6E12D4754ED3
:1028D000247253C04DBEC11118411AF4E0A6415DE7
:1028E000E7442207039D7DFC74191C8111A441AFAC
:1028F0005EEB0D6EB4CEE026E0D6415DD6A7033187
:10290000C71253FAD11880670231C71253B848D0A2
:102910001881311690180D1173311580D838BD30DB
:10292000519F1608C8E00A2333881F8C115580C5B3
:102930000087FEF5D408178070010917436011095C
:10294000168160413A019F6626326111A583D11834
:10295000ADD31411F5133719068FE502C88E09D8C7
:102960003F2E80EFA70244710E701180DF6C03448C
:102970008F2D1703F8E64830F19066C813F1EA8A04
:102980005DD102D8395890FFFFB3FF1F6301283093
:102990003283F8C118D148131D233388DF971145BE
:1029A00084D1181D813114A46131119F666B513E91
:1029B000011936311200323A4D15513B19221A379E
:1029C000D56EC3D32230405D2333881FA111651E0D
:1029D000131119D563730F73F5FFF9FF3F3283F8B5
:1029E000411A818CA5B0F3FFDDFF3F3283F8BA189E
:1029F00051E3C11B00A888DD3240AE0110751733CA
:102A0000018194970357031703D70211808A1C137F
:102A100020F83C1C10113111371150B9F8A2226076
:102A2000853F301882970A090A8095018ACFC30131
:102A3000110A817F331207B480133F133A960E8434
:102A400021F887C5816132F8DD14802148A8E44966
:102A50002A8185F8959B50B70182DF8F0EF823B24B
:102A60005166F8AFEC00A42F339999F9F6145B8AFC
:102A70002F4110F7F878C511DF552F4117536848DB
:102A80001321F8639F50277836857F33124374846F
:102A9000130D16F5D819BF609580BFBF0694324458
:102AA000210E0D513BA8B2817F331242B4801367CF
:102AB000133F366C711F3431D7C5D2D73211C119CB
:102AC00053B1A5F812248DF8FDFF5070711333B186
:102AD000D4F61204318114B1A0F812647D572BF89A
:102AE0009E4F804F4901F896C5C1D589AF090F1790
:102AF00029F862B121838F4A01111113F88EB38135
:102B00008D82061D36FCF8C53C5009D8022F80AFD7
:102B10002A03D580AF6B0326CBD82B2E809F75055B
:102B2000D8505420FFFFC0FF8FDFF209C4807FF729
:102B3000090564FE7E5613CB562F417448137B560D
:102B40002F41743A132B562F41742C13DB552F4110
:102B5000041333F15DF5127458882A054818636030
:102B6000FB80D6050BA4406858B0400AA440B19B36
:102B7000F8128515DF552F772C44152F562F972BDC
:102B8000D4147F562FB72A6414CF562FD729F403B5
:102B9000174361816F180FC11173B194F51224B8F6
:102BA0002272228FDD440917F4457F2C5FED77F107
:102BB000651EFB582F4110537113344E4E41111CAA
:102BC0005177C1115517F7130D411DFCF88EB31144
:102BD000F731176F6C2F41857F61024858115828D3
:102BE00094E102025482561CA71F71805FBF063415
:102BF00081231AB600134BC71D6017E77096D60DD8
:102C0000513B4314E2802A0A133FD6FDB19BF88260
:102C100074510E0A56500A5650F8379B800F87079A
:102C20000D513B97022D513EA8D68375F8A78A1007
:102C30003631169B672F416420807D06050A4612B7
:102C4000C18FA5588B5F5A0AF7FDF8DEFFD01073CD
:102C5000F181F812144856307114543114369D60C5
:102C600058865FA00813F0F8B18A1063C11454CAE3
:102C7000715E11FB582F41164641E28E5F2A0165B5
:102C800060418E1FF01A70FF80665370F8E4FF40B9
:102C900012311653A87ED0502D71133331102331C9
:102CA0001000F8058A10A46131019F66E31110BB82
:102CB000882F41101B882F4116312C41A41C4A7DBE
:102CC000C08014F853A781CF721AF8127C70CA8C96
:102CD0007706A647F8379B1038D8EA741034D80D19
:102CE0008F80EFF308BD10F19BF812B580D40A5421
:102CF00000580DD13291C289FB005D31750340E966
:102D00004193941A2D6EA806101B882F411654204B
:102D1000B181F81264B80610464186AB002D6E41B1
:102D20000511DF5A2F4177B7114C4177AD113F5A4A
:102D30002F41A77FC11474D7F7BD31A5BFF81BB4CD
:102D4000D11773B89F1553515B1814074B5407A83C
:102D5000D870591F4786FD71247F5A114727F42DDB
:102D6000134331C31A13B7127D717422D17F104FF0
:102D700092FA8B2F431BF1B2F51234A866609FA024
:102D80002C311574695EB0647D71F4F7177331C529
:102D900013F409EA16078B8AF090A45B7174D010C3
:102DA0004749E911342D6EA86611BB882F4116548E
:102DB0006570991E47E70B717E86708F104CB707C0
:102DC0004708FAAF7CC1693E7F7CD06B6A1F2F56E3
:102DD0002F9706F17EF6727B207D5A101917643109
:102DE00015F5B0A8080D7110B5958300FBF4F41427
:102DF000573117532C9810DD771CD06BC61F7431D8
:102E000013132C30D835B4217EEB5D0C71045CF3C8
:102E1000100213176629E28700E297FDF227DC71A2
:102E2000045CF610686D87DF6A07C516F4694A7698
:102E30002E818A5B7070CA1030F818FE4014580A50
:102E40000776E6819FE50F871D689A809FEA0F113C
:102E50001B43411A16232DB2E0553080A0D8067AC4
:102E6000F00E10DF5A2F41175343004FD035236522
:102E7000103471840A22A812F1F414732C3157E330
:102E80007110749708302D743F24550269658A5A71
:102E9000057181123013376911326193168B13F764
:102EA00069E134919316C5C62FB70305D0862F4329
:102EB0001B2D038BEF2A01041047411743813A254C
:102EC000650011C51A634105D0D2356281F8BA1880
:102ED000D1D0521B9D411354A8EAF03A74982F5850
:102EE0001CCB432F4104D00A0080003089C5D8B9DB
:102EF00000107F982F519D31769E4F2903D51D805C
:102F0000231688DF97119511080311C411788E8F4D
:102F10008DA40886095B006002002DA6FB818186D6
:102F200010F83B4980BDB702305888AFC202E5DCDB
:102F30000F805D0303111B4361838DB5072701D803
:102F400001557007800D3005734B45592072FA8A80
:102F50006D420514819E38AF2F1310B8DA30B1805E
:102F60003D39092E011BFCF84EA4113311EB1A1345
:102F70005173EC9480D0A009F203A75CFA22AE67EB
:102F80007A54050B064D08D0F6FE4A5DE3517502F2
:102F900048807D1B1814815E308FCA0626F831C721
:102FA0001273C115F51557FAB76F6F1320CCCCCC3F
:102FB0009520A37902CCCC55A07E43600080AF0958
:102FC0000F3113000DFABB6F6F6F6F6AD655132365
:102FD000FB8BAF8B1144D03010E02009FA10743114
:102FE000153513279D5C5C1C1CB2B8D0E011BF796D
:102FF000009231C71973FA103521B00FFBB00FFBE7
:103000001081313550EA25A847BD65F0F616D47118
:103010000B5CEBC11FFCC11FFCC11FDC0A5DD111A1
:103020001953D83CF27023A2402532919F161B13EE
:10303000FB6921E696162F6E69410580CFAA129191
:1030400041BD412430318DCF64139464E6101B944C
:103050002FBD4134318D1F6013F8B225111B942F01
:1030600041D607101B942FBD4134318DAF5F13F84B
:103070000D26819F2213F852322110CF342E0301E6
:103080000E83716D7D9DC7079D6F4707C1D392B4B5
:103090000723001AD5D37B5BD0FB96A009E704C5B4
:1030A000107CFA12D5171E471F34330012513D32DF
:1030B0001942118D1774B048011B55836FAC12B1C2
:1030C00041F912647D00C7031F111F00001F1D1569
:1030D0001711151F07041F17151D1F151D01011FAF
:1030E0001F151F17151FC1D7A0A84C6D4CAC702C15
:1030F0003114E5B52FFB12D507C108008E0010A4CE
:1031000013E06942E596260CE7050A544347056D2E
:103110000A563303070E1615101E473F035011D5EC
:10312000138D1774B048011B5573446EC77B133061
:1031300080E0E0510197E586FEF17CF912350081CF
:10314000CD8405D89A3D00106301187301892F6C56
:103150000054119131158131848DCA1A68CD80DFF8
:103160005712048E1F7200C6FC525E6800000000F9
:10317000000000F00027700227700227600336600D
:10318000034770044770046770066770089FF00972
:103190009FF0099FF0091007E010104A00476015E2
:1031A000007F063502F0787023007F024308F05A52
:1031B000D088000D00D60AD03640BB004D09DF0D87
:1031C000F08760DB00CF01600EF00F30DF00BF43FF
:1031D0004D4453544B634934E46445827644434E32
:1031E00056679BD41474544412D64C494E4B4C45EC
:1031F00058640F1544455524E544E2955052494E14
:1032000054623D95354555D444F2B5535953544510
:103210004D604935E46445627654434E5665F11F6E
:10322000200001404C494E4B202C12E0EABB204EBE
:103230006F7420696E204952414D9C21E0EA07E2FB
:10324000F44607C25484C5FF14116301888FD30B61
:1032500001127301CB12536D4C2C6CE8C40C11AAF3
:103260003F7D181FB131C44F32711973017B331088
:10327000B131251A94FBB44FC1015CF16111D7E65D
:10328000FC11195311184316660D41AA468D3531AC
:10329000B2BFF8C11841040D03010E92A00F4117EF
:1032A00053513371D2C9C5C5C1218B0B0D1EF19B82
:1032B000072019739C31A70D511302301C0188059A
:1032C000A5401180581175147331D517630188AE6C
:1032D000B6D01B730189354B46635882DF8F0EF8D9
:1032E00023B25138CC341320260B70018BAF50120F
:1032F00044B511913185AF420260C114833118FA8F
:10330000A0C078E26D9B37816197D718FCC11F730D
:10331000018ACFB209B80E1E434A3E01C24D33DCCA
:10332000C111B46902BF64A58036234883AF2A1552
:10333000411816133A69868C3797580389D08FF055
:10334000017A4D0F174378430010A13105D925109C
:10335000E4090A872608C1407961D14033E0506909
:10336000651035A766081D85116517F679A61DF746
:103370005113C11F65116308196319821076051A6C
:103380006461141131A10FD83D248026083117A0A3
:1033900031E60606A31FEAF5E5E5C5152322280157
:1033A000A36FF8B4EC802F321B111843FA8606087D
:1033B0000B5409D816F210FC5175D85681A1D4319E
:1033C000D0897E9F802F161B11195349C982262050
:1033D000711FF4EC6CAF080D53736E20411DFCF8A7
:1033E0008EB3113517F75518B16030134469616019
:1033F0004972E8BF7495444485F4942F22B1057551
:103400009544448584952F0C910715343575F52422
:1034100045247B2F3BB135D4443445B564972F0008
:10342000B1B7549435F454E54435442FDFB034C477
:10343000F434B474972FDB9056E444C494E454A459
:10344000952FCC904794340565F424D5C46D2FDBBB
:10345000B037F4E44425153445E53F2E7FB0C5442C
:1034600054C4149485942F1CB0354454C4149465EA
:10347000942F060000419A863C6B442CCCF81BB379
:10348000A12FD2333210F8A8C4A04D5601419AC6DC
:103490000EF85DB7A0AFF2C040280113A550F2515D
:1034A0000A4E951E24FB50E0510A61A08F31226222
:1034B000D01F6597A7ED4E4EFBB66F051FA41303F3
:1034C0005DE04F8701445453584946494353474EA2
:1034D00045705C9C5C9C3114E5155C515D6909127A
:1034E0005C4F533A31200B1ED5550971119510339D
:1034F000FA1612EE2F2F036F393F4041FA946044C1
:10350000262569B6830F461AC131E34E2D83AFA637
:103510001BD835B531E19016C3131E69D1C09E1674
:103520006BEF0011195341D336F34C8D6AAAF81B87
:10353000B4115741836AD6C17502C15DCA11111316
:10354000711A746C5580A52CF835B4D1168011D33E
:1035500016B0D8ABBA811F651871873F051C3114AE
:10356000246D33DECFA8C6199741ABC06B4409D890
:1035700063BC1138411C4CFA80A6057A1C34C11A70
:1035800073311523AE2882C13872100C4E6DF83598
:10359000B4C1145631C6D28A2F431B53CFD4005125
:1035A000756DF702476371F3DD19D4C113FCF88E12
:1035B000B3816F4A01111B43D83CF2104381D111F2
:1035C000B471A18655B0568151EDDC3014811FD302
:1035D0000BF8DB14D0163331103731131C8DF8770C
:1035E000B131011FD4BD31E6195313CF41DD848DB4
:1035F000501B1002601F00F84C3E711BD0116B87EE
:103600002F41768C30F1847DF317F82FF6100A9550
:103610001FE52A3514892F700829102A871FC51A1B
:103620001919242D411403280173C40FF9FF8F8A3F
:10363000EEF89A14D1181B882F5176AD9196411649
:103640001917451769186441C0C519B91844437D55
:10365000F8D28F7A07235B199043DDBBD10AD707D5
:10366000E70AD60B86DF64183184CA5E11812A56B8
:10367000111853711D3CC187AFA41B443910B40904
:10368000D0E71F5DFE5A25B054084280A062014871
:10369000760030619E2EC3611FF84D31E61211A8ED
:1036A000E280BB0BF80813C019539D6742C18FEF2E
:1036B000381B5173F8B3F64039B171F812651769C8
:1036C0001944811FE51948519C06EC8F4152048F23
:1036D0000C3539B1803D390981818558894F060300
:1036E000F83B32808F620394805F6503D8B13580E8
:1036F000AFC202F3C80F805D030353544F2052F84A
:103700002354802F9205F8C15110B4D850546087CB
:103710008FDF6903D87231803D4905F9FF6FFEFFE5
:1037200043C0FF8FCF6413E48C6F180FF81CBD806B
:103730003F221B65AB2FA8E8CA3CF0B846DAE6C6C4
:10374000D6C5C6116F572F41C7190001D935440D91
:10375000009CB199F51224B8A6308161F11E0111C7
:10376000196E971F95100E581F54711454711454EC
:10377000D17641175353003000515D71C55CF62678
:103780001DF8C53C500048842DF002D8455790FFE5
:10379000FFE0FF8FDFF209C4807FF7099580AD3924
:1037A00009CA8BD08F190E0233015246FE0231171F
:1037B000A0318705711FF74183CA0C331700E6FB60
:1037C000011033311110C1DF10B53384200EA8C2AF
:1037D00030232065931F37510709CA30D303607D1A
:1037E0001F0111C91253419FA6094860908F071EFF
:1037F00071113301730000872B1411826B0C333F5E
:103800000086F36D3114F6611F643116A83116A6D7
:1038100041828A1E8D31C2102361E51963811563CF
:10382000F6FD411423AC3110F6611F6431164831A6
:1038300016800111B13111F7711F4731832F171B0A
:1038400011D11881AC31D017E4699AD1DB146381AE
:10385000156331105656F72D411CA13114F6611F26
:103860006331E41A04F8DF0D818DA408FA10733176
:103870001580F8702E6116A00F31175301882FFDA7
:103880001240D412823185BD3D1BFA3204E457FA4E
:103890001A81FBB66F189E6F000206C71871997FD8
:1038A0003770CD8F2F251302133AD6041471797F08
:1038B000B18F4FCB0EF822B3A16FC8F0F52D1310C6
:1038C000D89AF0801117F687FE11885F3313021320
:1038D0002F400F0FEAD4FEB22FEA1B551007031337
:1038E000551007C0986281491188061EFCC16F926D
:1038F00019947161CD4F11D7EF11887F40130F0FCD
:103900000FBA6A640F000000000000000000000011
:1039100000000000000000000000000000000000A7
:103920000000000000000000000000000000000097
:103930000000000000000000000000000000000087
:103940000000000000000000000000000000000077
:1040000000000000464F52544831422008E200466A
:10401000171912200D1BF01250000000BF032008DA
:10402000D0B8003C60FB00D1020918D01EC0950139
:10403000FF00F219F000B0A101BF464F52544824CE
:10404000056BF42445856444B0464F5254484903F7
:104050006BF4244585842590464F52544801F11F46
:10406000000444A2746F6F206D616E792041533A51
:104070009494043286162637070257726573656E6C
:1040800074EC003046544820AC11906E6F20656E81
:1040900064696E6720AC20F0E3E8BC30D001B0C3A7
:1040A0000B041D0029BC50D00120C221063FBB617A
:1040B0007267756D656E74203C20316C73A0646509
:1040C00066696E6974696F6E20BB6E6F7420666975
:1040D0006E69736865645C82B04E96364697F6E604
:1040E000162697076256C7C6C621093FBB636F6D88
:1040F00070696C65206F6E6C79CCA1F09348504963
:104100004C206572726F72CCB3A0617474656D706F
:104110007465642074EB6F207265646566696E6512
:10412000206E756C6CFCC2A062616420646963746B
:10413000696F6E1826970752E6462797C7360D9A7D
:10414000E6060227F74657364657B64B06429636DE
:104150004697F6E6162697C71C0E5AD606479707C7
:1041600032471736B6C61A0F6956C7C60632471702
:1041700036B6C625103FDB6E6F74207265636F67BD
:104180006E697A65648C13F1A3636F6E64697469F8
:104190006F6E616CBB73206E6F74207061697265A5
:1041A00064CC23A1464F52544852414D206669EBDE
:1041B0006C65206E6F7420696E20706C616365ACF5
:1041C00030F1E33A3C42B15DE7B6E6F676E706F257
:1041D0000637F64656C638157AF494553405F22655
:1041E000072245B5EC9455340522571657972657A4
:1041F00046C63116DA96363797E676F692C6C696F2
:104200006567616C206C6162656C8C73A1696E7608
:10421000616C6964206C6973CB74696E672061722C
:1042200067756D656E741C83A1696E76616C6964D7
:104230002071756F4957460632472797E676C6388C
:10424000197A1726E796E676A60372F7B62C470684
:10425000E2F6460752E796165757C63C1A9AE666A4
:1042600017C69646066296C6B65EE616D65606325D
:104270000757369666965626C72D1B9AC6C656769B
:1042800016C60672F72677642073656C6563746CD6
:10429000C3A16A756D70206F722076616CBB756505
:1042A00020746F6F206C617267656CD4A16E656558
:1042B0006473207072657669FA563707425736473D
:1042C0000792E686737472756374696F6E8CE3A1EE
:1042D000696C6C6567616C20706F69CB6E74657218
:1042E00020706F736974696F6EBCF2A1696C6C6544
:1042F00067616C2073746146573707229646C73E44
:10430000209AC6C6567616C606420607B21F2697DC
:104310004687D656469736066217C65657C6332185
:104320009AC6C6567616C606422717A66E736665E7
:10433000722076616C75652C24A26E6F6E2D686597
:1043400078616465639AD616C606429676964607E5
:104350006270726573656E74EC33A2746F6F206D5A
:10436000616E79206865FB782064696769747320E1
:1043700070726573656E74BC52A2756E7265636F00
:10438000676E697A654606C2162656C6C63326DAB1
:104390009636D716463786564606A2706172656E07
:1043A000746865736573BC72A2696C6C6567616CD7
:1043B000206578702657363797F6E6C646285A861F
:1043C000375636370732861626A7616374657273CF
:1043D00020696E206588072757363797F6E6C62589
:1043E00029EB6475706C6963617465206C6162654A
:1043F0006C9CA2A273796D626F6C207461626C55C3
:10440000066256C7C6C63A2B1A464626573637079F
:10441000E2F646B70D92E6369746560612066296C3
:10442000C656C6292CCA96364797E676066296C6C1
:1044300056652066756C6CACD0F2E33B5CE2F2B37F
:104440002D16460602172617D65646572637C74654
:104450002FEAF6460752E6F656778606A26D656D98
:104460006F727920666F722018363757D626C65677
:1044700026C73130CA96364797E676066296C696C4
:1044800065206E6F742054455854FC12A3696E76F3
:10449000616C6964206C69734897E676066296C61B
:1044A00056C636323A16E6E6F64607F20657E6B63E
:1044B0000B32F756273756066296C656C63C33DA95
:1044C00096363797E676F6D256C7B64E9706C75653
:1044D000066296C6560642970757C62134CB436FED
:1044E0006E66696775726174696F6E9C52F3B33F53
:1044F000472797E6760672F7E6764207629646C742
:104500003C363FEAF6460792E60632562727B75D65
:10451000E6460762F736162656C7162697C71E3791
:104520003F3A16E6E6F64607C2F61646C629381A98
:10453000363757D626C65626071256626F727465EE
:10454000641C93A363616E6E6F74207265736FC990
:10455000665706521657174657C62B3A0A1776560D
:104560003697A6570642F7666F20736D616C6CBC78
:10457000B2A36E6F20444F206265666F725606C20A
:1045800054146455C4333C9AC6C6567616C60632D1
:104590001434A545207374727563747572654CD4B8
:1045A000A37265737472696374656420CA162656B3
:1045B000C6066294C654E6746420657869737473A1
:1045C0005CE2B30EE2F646072257D652E6462717BC
:1045D000E646C7133F2414349534D43E3C01444688
:1045E0004F525448EDC3FF4002692933A19F165929
:1045F000132D694135219F164F13F169A134B19FE5
:1046000016680513B1311521C11D73B8C6115301C8
:104610003B2D14A38344650412D50D609F60E361B4
:104620006372FC51ED4722657E3752DFB1BBFBD28E
:10463000E216442626571D657C1752BF671F24D2F9
:104640001FB022F8DD1470C923828F4A0111DB17D5
:104650003FC42F4187AA09F8FF180110CBB02FECF7
:1046600041740E739CC699E24164AA726851D907DD
:1046700019257DA351CBB10CFB1224A85C50B9B114
:10468000A2FB1264A80AC2CCCC4C112D4114CBB0B1
:104690002F4104608F3F340600A88217BBBB2F4117
:1046A000C68EAA8A430200802AD56EA86686BF1FDE
:1046B00009F8A571DE1C2341169061146460611431
:1046C0006460611423CDF87A711E91F8411A81D487
:1046D000B767F8A5710ED3C21ECBB02F4164431249
:1046E0006FBB2F2D4175067294A5EFE00E48502D3B
:1046F000373120464F525448203141803E3E94216C
:104700000E2EEC94C04E04302061DF10A563DF7FD5
:10471000D84F040028110F00E74317E2E08E61CA6A
:104720000A23108B552F4116435172F3464F5254B2
:104730004852414D795650A430611F4641128B5565
:104740002F41862A0030024300001E43413261643B
:10475000E57F9C5F33E7FDC572BD5F25B1BBFB12F2
:1047600064A84A0010CBB02FFA1264A84E00E0E60D
:1047700086EA0B2D6E1108102BBA2F41828A09F898
:104780008A1B8ED644188EE1ECA87E133B682F411D
:1047900086EAC2611464A87E1B810139118CAF5F67
:1047A00013974D111980B10CFBD2C2CE1E44F8FBF9
:1047B00091106BBB2F41D687EA2A11881F3F094809
:1047C0001DCBB02F2D6E41744270D003E8E3B10CC5
:1047D000FBD2E21644B1E4F71281513CF8A571DE38
:1047E0001B4C41759CE3C7E5E4281E1BB12F411605
:1047F00073611464DD10D803530073FFFFF9FF7F6A
:1048000008705360F9727D4E0013234608FA223077
:104810006FF42445852415D4A4AFF8B09F4014311B
:1048200013133170C75D063020133F4604C7FB6485
:10483000601533946A015D43D3FAD21A8B552F4128
:10484000E64E1E1C9D011964AD0739E521803D39F6
:104850000922132F021334D89A931001311013F345
:10486000464F52544852414D5175713F83211ED5D8
:1048700013F71131040200EE411547311654318609
:10488000DF5D08971BB901C0D7300C0F0300000192
:1048900000C0D7300C0FC3D730DC0FC3F0300C0F83
:1048A000C31731ACFC0206000000F00100FFFF0F4F
:1048B000000000000000000000000000A7FC72CA19
:1048C0002F0000A000000000000000000000000019
:1048D000B1FC12CB2FD0000000000000100000003F
:1048E00000100000000000000000000000000000B8
:1048F00000000000000000000000000000000000B8
:1049000000000000000000000000000000000000A7
:10491000000000000000000000716CEE05E59554F9
:10492000AE2FE0EB10DEB7E373510E00003800400D
:104930000100000000000000000000000000000076
:104940000000000000000000000000000000000067
:104950000000C5464F5254C860711E082AC92F0076
:1049600000001753FA10347114DBAF2F18843F6224
:10497000E3971302F111FB127431156BB12F41064D
:10498000D115CBB02F41D2E21644B1A2FBC21E44D6
:104990004EE4723EA0EFE00E48502D373120464FD6
:1049A000525448203141E4281EDBAF2F4116735783
:1049B000009C290E1763D8DD716E251D8B552F4382
:1049C000D3FAD21E64B86660121D3331812A06E61E
:1049D00008432500C01243411604A852836B155D9D
:1049E0008E432A00C0D26E1A10035DEEAC432A003B
:1049F000C01A631EA703B1B6FBD21244B1BBFB12AF
:104A0000449701B1FDFA126431156BB12F41068153
:104A10007D7CE4D83C1310F7711F73312430A4045B
:104A200000F8A512500666F2ED0C3106164343203D
:104A300000D01D649CB842D0DA1C8F552F41D77A24
:104A4000A34FC8709C603116F8811F23118A8F30E4
:104A5000013114F6613F04FEFF9C4114030C432511
:104A600000E0D90D166367F5432500D00AE7D205AB
:104A70000716434305001024B82632B4FDFFDD704D
:104A8000ED430500C0DA76156F48EB8A0B048DF113
:104A900058F512743115F7711F3431C71A7367EE68
:104AA000709C60ED430500C01A81F8081330540271
:104AB00000EE0C31D4D20DE61163E7EA7026F65809
:104AC000709F2484DF4D01B1BBFBD21244B10CFBBB
:104AD000E21644274943FDFA1273AD4117333114EE
:104AE000737D311581EA128058720671E2411B68AC
:104AF000718057ED818417E58164DFDF1B5331D668
:104B000017B0CA129011A82E018824370CF7191477
:104B100082160E8709B6FEC61717094DB70896FD0F
:104B200068551473011A1111B86FFB1643819F84E5
:104B30002EF820731E0FBD2F5176811F5517114A75
:104B40001C1086FD3117A0A73A111A538738111986
:104B500053F838BD10737D182C848F4A018D87203F
:104B6000107845D11B4341104631D607618D103571
:104B700087150399681F78B5803F221B40711F730A
:104B8000310561A530E19026F50BA44669AC8E266F
:104B900017BD60F88EB311352700D78714FAF8F5E2
:104BA0001591311790AD3113F731C389D131D5D972
:104BB000D86A96AF8F113140189624004B1410110B
:104BC000B86FFB1643FA140517F631B20FFB1081CC
:104BD000EAAAAC0100814FB6E1131FD89A9380076F
:104BE00027011233F19EF51274A8A21013110213BB
:104BF000131102122011A06F6B1680189624071152
:104C000002132120D89354A02C018A9FFD03D48243
:104C10000728119AE40778B3B1645411A013F1691D
:104C2000428D2D1703D82B2E70FBFFB9FF8F6F1805
:104C30000FE71BE89FF7E8E8F7B10CFB1264ECEC18
:104C4000A8FAC18EAA18C71A48850477CEC700E60D
:104C50000D134016173710F8641B7E83818DA4084E
:104C600013353615F116FBD2C414BBB12F41168093
:104C70002C41832BD8111B53C1D41B5411184C4108
:104C8000D519806CC11454F819362E10BFB12F41BC
:104C900017014C2C31D5125462F8DD1420D0302489
:104CA000B52F3115144357FB12534121868F4A010A
:104CB000F116FB12745D11233024BA2F3105115403
:104CC0003183EE9D3FC5E6B1451E27E090021E5B95
:104CD000E44C028E3BE56B720E07017069802E4832
:104CE0005F4AE8A8F415141BB12F4116DBAF2F4122
:104CF00082EB303111347114734184BF311B40A7F2
:104D000003FA866D210F13127600130E22132F0261
:104D100056D93117BF892F41154731165410B19B11
:104D2000F812643117464116631000A7FCE8E3F35C
:104D3000B58A9E405FA2B1D0FB122577C1AF6F66E6
:104D4000F896F80087F9E8B1F3F58E7E3D5FE6B19D
:104D500011FB12643116983116DBAF2F4182AB067E
:104D600036F531A12F411747411347011333411045
:104D7000316C017A511FA1F89AF010A13112201163
:104D8000C31A03188EAA158111A4411917ECA8FEA5
:104D90001E113111213180CD230F504444558445DB
:104DA000050242210E0020312240C851038600F046
:104DB000FFFFF001003AFC48503731205465787409
:104DC00020456469746F722028464F525448292048
:104DD000410DF002002CFC436F70797269676874B2
:104DE000202863292048502038340DF010002AC1B3
:104DF0008A34405C444455844535DFA214DF528533
:104E00000F3C00F0150016DFB30138A00010A21807
:104E1000F4F40FC50C24B3520341FFD0FD704203DC
:104E20000040F404F5F41EEF0140223246343431E0
:104E300022F1224622F020000A44F10C99F47ECCA3
:104E40002D56F20B1611DF2224BF1012F12D4DF258
:104E500031F12D49F234F12D44F231F12D5AF23570
:104E6000F12D46F234F12D4FF20C96F12D52F20C49
:104E700096F12D54F20C96F12D43F20C96F0300081
:104E80000E2D4AF12D4AABF40C2D56F12D55F40898
:104E900042F131F40851F130F40852F130F4085580
:104EA000F130F0400046CC2D48F20C16F12D4CF2BA
:104EB0000C96F12D58F20C96F12D4BF20C99F12D28
:104EC00057F232F12D45F231F41F2D5AF1223246BC
:104ED0003644392235B3013F426FF21E002422636B
:104EE00064439423122F520303030323022F04105D
:104EF000D282142F226364539423C260311BF023A7
:104F0000F413E0E3DD0FA4319099424FB14E5C44BD
:104F100054B5549435458F51FB3C4F5C4454B554C3
:104F20009435055F0460F11E90435C44B45494359D
:104F3000050F0500C2DC92251F13DFE2241F13DFDB
:104F400012251F437FD102158F800040322B351070
:104F5000F4132D59F12D503131A7423FD1E214DF26
:104F6000022523732AF4132D51F12D503333A70258
:104F70002F0510F114DFA2340B3F10F420DF4F0C8B
:104F800057828AF2A4700521A8288DF4F410EF014D
:104F90001B01002D4AF4084FF130F0550018DF4F87
:104FA000308A41FFC009030030F0700210EF0108A1
:104FB00031F32D4AF40CDE2331F14FF40C4FF14F55
:104FC0003187F080020846F130F413E0E3DD0F454D
:104FD00002303340EFD03C12232F22029F28B060D2
:104FE0004F3A004DF40A44F10C96F40ADC0EC44E1C
:104FF000F408BE2D4BF40ADC0EC458F413E0E3DDD4
:105000000F802F8099020F2960A01F430FF21E000E
:1050100024226364637423122F020323025F29F0A6
:10502000D172152F22639443632422331BF023F49F
:105030000A6146F131F40841F131F41F2D49F122A2
:1050400032463934362234B3013F42AFF01EE01409
:1050500043AFF02D14484F8F20141F030F306020F2
:105060000E4E8F30141F439FF1DD62951A48FF905A
:1050700014003503F404F5F41748F12D56223B22B1
:10508000B30142020F31A0F08D14484F0F8114DF9D
:1050900062951A73080F3290D13214DF62158314AF
:1050A0002378782AF411DF482D56A98A414F5FD121
:1050B0006215DF62851473781AF404F5F40C2D562A
:1050C000F12222F030031CDF2D432D43A9A721023A
:1050D00022A228F4F4152D432D43A9A7112F224213
:1050E000FFD0FD10FCFF3003F40FF50FFC0200446D
:1050F000003F33E06114CF00C657140C617C45219A
:10510000337848EFF06D44EF40DC44FF50FF30D976
:10511000029929F035031742F1424F46308A2D7823
:10512000C84ADFF02DF4A4D8F4F41BC50805002408
:10513000B3520321649A284F4F504F5F518C100097
:1051400040322B3510F2F060031FC5222C202208BC
:10515000060024B3520391284F4FF10B2022D26254
:1051600025DF6245FFD002153F1B0005F0700311DB
:10517000DF2D502D568A4D4FCFD03214DF6245CFF0
:10518000D062152F2242FFD0FDC009000004F0803C
:10519000030EDF2D50A981F4F40C2D43F12222F4EB
:1051A0000FDD0F8E01004440AF50EF40DC040F399B
:1051B000B060DF0D004EF416CC2D50F244F12D53AB
:1051C000F244F41BDF7322233433228A42EF40FC83
:1051D000444F504F4FB00D0F408082142F52453432
:1051E0004425E424D2321413732AB3014242BF058A
:1051F0008E1473D8ED40FC14FF5050025024F10F70
:10520000D425005012EF40FC14FF3076029025F1B7
:105210000F7527006012FFE06F027025F020040B6D
:10522000F68604F0448FF01E10448FF01E10448F59
:10523000F01E1044CFD032142F2242AFD0ED40DC0C
:10524000040F43C0F11E002422639443632312DF42
:1052500092448FF01E10448FF01E10448FF01E10E9
:1052600044FFD0FD60EEFF0004F040040EDF2D434C
:10527000A981F4F40C42F1423187F40FDD0FFC23D5
:105280000045020F4580E0DBB244AFC0ED408C45E5
:105290003FD12214DF32340B7F10F4172D45F12D4E
:1052A000420C190C19A742FFC0FD401A000007F07C
:1052B00055041755F12D420C130C18A7524A7FD1F3
:1052C000D214DF22C400C200722AF0560413DF2D6C
:1052D0004D2220228A424FCFD0D2142F22020F46D5
:1052E00030D1F214DF22C420721AF41B48F12D428F
:1052F0000C210C21A7521A73484F068ED4FDC0050D
:10530000008004F10F3107009810FF10750090091C
:10531000F10F7107000011FFE016003007F10EC415
:1053200050F10EC451F10F78000064000F4830F1C5
:10533000DD52240222A228F4F40842F151F40ADDDD
:105340000EC44FF40AF50E2D45F000051251F1512F
:105350004251818387F41252F1525152818387F472
:1053600004DBF0400621C508090024B35203212FB5
:10537000A22322DF3244AFD0ED405C050F70001253
:1053800015DF221463732A424F3182877C52031F38
:1053900070202215DF2274C320712A424F31828788
:1053A0007C52437FF12D2515A5188BF40EC452F0C5
:1053B00005070C51F1514FACF40DDF524F8A464FA7
:1053C0002F2115FF14237818D50A0F7140B00D0F47
:1053D0007390518C300040322B3510F22D45F40A79
:1053E000DD0EC455F0000808BE2D4BF41CEF014043
:1053F00022324639343622F12D49F40ADC0EC458E3
:10540000F001081ADF31B30127C170C357148BF4C0
:10541000F40ADC0EC453F40FDD0FC5006081005F99
:1054200080C0D032142F2242FFF0CD70C35714F445
:10543000F40FC50C65B35203414F504FBF503C1B96
:105440001002F0090806FA31F420EF01402232463A
:1054500036463722F122303022F40ADD0EC455F0F0
:1054600010080BF6BD02C044EFF06D44EF406C0530
:105470001F8180F01D454F8F20141F056F818060B4
:105480000D07478FB0CF90453F013EDEFDF0EAFFAC
:105490000008F0200818C72331F142318287F22D2D
:1054A00050F040081ADF31B301271128F4A4188BFB
:1054B000F4F40C2D52F12D50F40FDD0FBF000086D7
:1054C000404F504FCFD022152F22025F8480F11D14
:1054D000331B7012424F8AB2484F7FD202152FB24F
:1054E0002582100040322B351089225D2289F05030
:1054F000080AEF013570F40AC52D50F2F40FDF31C0
:10550000B30127414F4F504C4F52CC70422A1224C6
:1055100092C870429A28A22492280F0F8640F10B5D
:105520002022D22225DF0245FFD022153F1B000595
:10553000F416E52223393422F12D523BF41CEF01FD
:105540004022324639344622F12D57F0700811DFDF
:105550002D502D528A4D4FCFD03214DF0245FFD04F
:10556000FD009CFF3004F0800818DF31B3012721D3
:10557000F4A4288DF4F41AEFF00431F1423182875B
:10558000F22D50F404F5F41AEFF00531F1423182B6
:1055900087F22D50F090080C4FF14F3187F40C42F8
:1055A000F1423187F4204FF14F424F8A11331B7083
:1055B00012818B8287F40FDD0FB4FD0F82000F91F3
:1055C000B0605F020046F406FB31F40ADD0EC44C05
:1055D000F020090BF6FA002044EFF06D44EF406C28
:1055E000055F92F0C0FD70ACFF0005F41CDF4F3189
:1055F0008A12F5A4688DF40EC44FF03009084AF100
:1056000051F4084CF130F40EDF52518287F4F40F5C
:10561000DC0FB5040017010F9430518C00014032AB
:105620002B3510F40CDF2D4FA9F4F408BE2D4BF4EC
:105630000ADC0EC458F40FDD0F34020006010F958A
:1056400090F1DDD2941A48FF4037003011F0600924
:105650000BF663000045DF51CC10382B3510223A91
:1056600022892D4D89F40ADD0EC455F0650908BE66
:105670002D4BF40ADC0EC458F40BC5B30121000F06
:1056800097B0603F0C0051F41DC50C81B35203214B
:10569000A22392D8F29448AFD0ED405C050F98B0A9
:1056A00051CC10382B3510223A2289F251F40ADD00
:1056B0000EC455F090091BC50C81B3520321A223DF
:1056C00092282F45AFD0ED405C050F00B151CC10B2
:1056D000382B3510223A2289F255F40ADD0EC455D2
:1056E000F010100BF675002045FF51CC10382B350B
:1056F00010223A2289F251F252F40ADD0EC455F01A
:10570000201008BE2D4BF40ADC0EC458F40ADC0E3F
:10571000C453F40FDD0F23020015010F03B160EF36
:105720002F0053F41CDF0C377C451148FFC00200EA
:105730004010F035100F44F1440B007148AFD0ED2C
:1057400040EC040F0431013EDEFD10D2011026F4BE
:1057500004DBF06010114DF12D4F7C6153413F018E
:105760003EDEFD10E1FF6509F41ADF4D308AD6D226
:105770002422A2288BF4F41FC50C59B3520321A292
:10578000032292D8F29448AFD0ED405C051F088107
:10579000F1DD04A368F40F40000010018F0871F1DF
:1057A000DDC47025A8D8F40EC455F404F5F410EF48
:1057B000011B01002D4FF0001110EF010832F32DF5
:1057C0004FF408FB0C57F419DF2D4DA981F40F405D
:1057D000000012010F1131F1DDD224B222A228F40F
:1057E000F40E4CF1320C1680F40AF50EC450F02081
:1057F000110CDE2332F14CF413E0E3DD0F06FE0F53
:1058000002010F13E1F1AD24A548732223343322A2
:105810008AD2484FEFF01E8020333F488F20141F5C
:1058200045AFD0ED40FC040F1511F1CD70351B7064
:1058300012F4F418C72331F151318287F22D50F45C
:105840000ECD2332F22D50F0601114EFF00131F142
:1058500051318287F40E4FF14F318287F40C4AF1B7
:105860004A3187F40FDD0F37FF0F13010F17315146
:105870008C700040322B3510F40AEF520231F40ADA
:105880002D50F173F0801119DF2D50AB2D598A4D39
:10589000EF40FC444F504F4FB00D0F19B1606F4DAA
:1058A0000041F40EDF46F40EC456F404F5F413C5BB
:1058B00008100024B35203015F198180141F438F25
:1058C000E0DBB244AFC0ED408C459FF1DDF2941AAD
:1058D00048FF201C005012F00012114AF12D4F7C9D
:1058E0006153413F013EDEFD70B0FF6509F425DFE5
:1058F0004A308AA2C47025A8288DF40F851A006446
:10590000021F2031F1AD04A318F40EC455F00212A9
:105910001A51F12D423136A712A3C42735F41C5277
:10592000F12D42370C12A712A3C42735F417DF510B
:10593000528A24B548EF402C053F20C120152FA5E1
:10594000C44A3FF11DA5A448F40EC44FF00512103F
:10595000EF010832F32D4FF40C41F1413287F40886
:1059600048F132F41251F1513151818387F41252CE
:10597000F1524A52818387F020120FDD0FDB0000C5
:1059800026010F2381E0DBB244AFC0ED408C455FC0
:10599000F2CD10C657140C607C45D148FFD099FF5A
:1059A0006509F035120ADC0EC453F40FDD0FA900AF
:1059B0000027010F25F1C0FD3032FF0005F41CDF88
:1059C00051528A14F5A4D88BF40EC452F05212131B
:1059D000DF514F8A42EF40FC044F25C1F12D24A531
:1059E0003842518AB448EF402C050F2631013EDE83
:1059F000FD20F2FF3012F41541F1413442518A3357
:105A000078080F2781713C82141F15237828DF0244
:105A100045EF061ED4FD6006008012F10FAF0010A6
:105A20002811FFC004008012F10FB600202811FFDA
:105A3000600E008312F10F4B01402811FF8001001E
:105A40008012F10F82002028010F28A1F10E4F10C3
:105A5000132F14237828DF0245CF20142F14734806
:105A6000CF10151F157348CFF014FF147348AFD033
:105A7000ED404C051F28F1C0FD7018001013F40A0A
:105A8000DD0EC454F082120FDC0F6601003141CFED
:105A900020142F147348CFF014FF147348AFD0EDC7
:105AA000404C053F28A1F10E4F10132F14237828E6
:105AB000DF0245CF20142F147348CF10151F157324
:105AC00048CF10151F157348CF20152F157348CFD9
:105AD000F014FF147348AFD0ED404C054F2841F14E
:105AE0000E1F80141F15237848AFF10E4F10132F8F
:105AF00014237828DF0245CF20142F147348CF10C9
:105B0000151F1573085F30B160BF0B0054F429DF17
:105B100051528A332732423323A2D88BF40FC9FD66
:105B20000F27016F30D1F08D24A328F4F40EEF017C
:105B30000832F383F007130ADD0EC44FF010131A76
:105B4000EFF00431F142318287F22D50F414EFF07E
:105B50000148F151318287F40E52F152318287F4BB
:105B600004DBF090130BF68D0080448F10142F434C
:105B7000AFD0ED401C040F4081B0CF20467FA11470
:105B8000DF6225B223321B2024F408DF4AF4F41527
:105B90002D56F12D564A3187A7414F504FCFD06235
:105BA000152F22020F4141B00D0F42B1602F8A0024
:105BB0004BF40A43F16146F42551F1514231870C0F
:105BC00060B3012721781815387848CFD08215DFC7
:105BD0003244CFD0C214DF62055F422124152F1555
:105BE00025153878C800361B701283524F318287D2
:105BF000528183870C60B30127113878080F45C1A3
:105C0000F0DD62954A4F4FD162152FB223D26295D3
:105C1000482FD13214DF32D46295482FD1F214DFED
:105C2000F2D46295080F4691F1DDD2941A48FFA094
:105C300003008014F0701419DF2D4D223F228A4D8D
:105C4000EF400C454F504F8FB0CF80050F4871F19A
:105C5000DDF2942AA318F40EC451F404F5F4132DC4
:105C600044F12D4F3131A7421FD1F214DFF22473DA
:105C70001AF081141EDF2D442220228A42FFC0F92F
:105C8000FF8014F090141548F12D4F2D44B30142BC
:105C900042CFF1CD00361B7012F40F4901005301C1
:105CA0000F5081F08D444F9FD1F214DFF214831412
:105CB0002378782AF010150C2D50F12222F40FDDF4
:105CC0000FAA010055010F5281E0DBB244AFC0EDD5
:105CD000408C458FA0144F44AFC0ED403C451FF1B0
:105CE000CD00361B7012F4F414C50C27A4224122F7
:105CF00089F2F0211518DF4A448A42FFD01B0110B7
:105D000026F0221515DF7322233433228A4D4F8F5C
:105D1000E0DBB244AFC0ED408C45FFC0FD40CEFE9D
:105D20000107F40C2D43F12D58F40C2D56F12D4C98
:105D3000F40FDD0FF8EA5F4540AF50EF40FC040F71
:105D40005351F18D84D4F294AA188BF4F4152D508C
:105D5000F12D4F483187A7419FD1F214DFF2148310
:105D6000142378782AF404F5F40C2D56F12222F449
:105D70000ADD0EC451F040151548F12D502D44B3E5
:105D80000142428FF08D444F9FD10215DF021583EF
:105D9000142378782AF0501514DF2D4FA981F40EC2
:105DA000C451F060150848F130F070152348F12D0A
:105DB0004F2D5089223B22483187B30142438FF057
:105DC0008D444FFFC0FD00B6FF0014F40FDD0FB689
:105DD000FF0F57010F60C1D02215DF02451FF1CD23
:105DE00020361B7012F4F40FDC0F19FB0F40010F6B
:105DF00061A11066143F445F8214DFF2341415234E
:105E0000782815237818330B6F50F41748F1484F52
:105E1000486A31878A3D085F6191F18D14C8603509
:105E20001B7012818BF4F410C50B32322B3510F03D
:105E3000201621DF48817322233433228AD248EF8F
:105E400040FC040F63C1D00215DF2245CF80148FC0
:105E50001473482FA1148FB4A6000031482FC11429
:105E6000AFB4A600003148AFA014AFA446AF801471
:105E70008FA4468FE0148F040F6431013EDEFDE0F5
:105E8000C8FF2015F0501618C72331F1483182871A
:105E9000F22D53F413DF0C58B3012711484F8F2014
:105EA00014EF448F1015EF44FFD0FD002F00501762
:105EB000F060160AEF013570F411DF0C60B30127B2
:105EC000414FFFC0FDD030006017F40848F14EF09C
:105ED000701608D63070F4222D54F148A6223A22CA
:105EE000894AA689225C2289F40C4DF12D54A9F42B
:105EF00008C52D54F40EEF014E4D3187F080161079
:105F00002D54F1222F3F22F40CEF014E0C21F40806
:105F1000C52D54F412EF014E4D31870C20F0901630
:105F20001CEF014022324639343622F12D49F40F5C
:105F3000DF4A0C958A444F5F51DC32A5C450227869
:105F4000781AF40CEF52020C26F404F5F408C52D6F
:105F500053F40AEF52024AF092160C2D54F173AB2F
:105F6000F40AEF014E31F41CEF014022324639347D
:105F70004622F12D57F000172ADF2D542D518AD2D9
:105F8000422532423323A2288DF40EC44FF010175D
:105F900011DF2D542D4E8A424FCF3014AF14734869
:105FA0008F1015EF44FFD0FDE0C8FF1016F020174A
:105FB00011DF2D542D598A424F8F2014EF448F103A
:105FC00015EF44FFD0FDC031008018F031172EC509
:105FD0002D59222F22892D4E89222F22892D518938
:105FE00022203F2289F40AEF520231F40A2D54F1A3
:105FF00073F40FDD0F02FF0F70010F74B160BF3734
:10600000004AF40EDF46F40EC456F404F5F408FB1F
:106010000C60F413C508100024B3520341AFD0ED57
:1060200040BC040F7591F1CD00361B701281F40E47
:10603000C44FF404F5F40FDC0F26000076418F8086
:1060400014EF44FFD0FDC021008018F0601708480D
:10605000F131F070171948F12D50225C2248B3013C
:1060600042435FF18D1448FFA019006018F404F555
:10607000F4132D504848A7122F22022F77A1F1DDEB
:10608000028584742A225C228A424FCF80148F14A6
:106090007348FFD0FDB0F7FF7017F0801708FB0CB6
:1060A00063F40EC348F148F370F41ADF2D504848EA
:1060B000A722C225A228F4F408FA0C63F4132D5089
:1060C0004848A7122F2242FFD0FD10F1FF7017F0B1
:1060D000901727DF2D504848A7226222A2280C6380
:1060E000B30127B1484FFFC0FD9003004018F000F6
:1060F000181CDF482D50A98A44FF6007006018F083
:10610000101806C448F040183F2D50F12D5031486A
:10611000318287A7D232A5A4C474182378782A893B
:106120002D50483187A791482F81148FC4741823AC
:1061300078484FB00D0F86E1D23215DF3215A31427
:106140002378782A2D50892D534A4C87A791080F20
:106150008741B00D0F8811F1CD00361B7012F4F499
:106160001AEFF00531F142318287F22D53F41043DA
:10617000F14A2D50A987F408FB0C56F40AF50EC419
:106180004FF085181CDF2D4F3132A722C2E525A222
:1061900028F4F40D43F1099999090F8991F21D250D
:1061A000A5387322233433228ABD48FF6088FF104C
:1061B00016F40AF50EC44FF000190BF642004044E5
:1061C000EFD152148F200040322B35103434A742C7
:1061D000FFD0FD803FFE3007F029200BF6DB0130B9
:1061E000445F54CC70422AE2239288100140322B43
:1061F000351089223A2022892D4AAB890C27A4899F
:10620000223C2289F030200ADF4681F4F414EFF0BA
:106210000131F14F318287F031200EEF010831F367
:1062200083F0402006EBCFF050201CEF01402232DB
:106230004636453922F12D48F41CEF014022324602
:1062400036443922F12D5AF413E0E3DD0F29000022
:106250000842CFF11E90445C4454B554943535FF48
:106260000C0F08C2F11E002422639443632312DF43
:106270009244CFF11E002422634473132312DF6281
:1062800044EFF11E0024226344431323122F022300
:1062900042FFD0FD90B3000040F0852027DF2D4D58
:1062A000A92D4FA98B2D4FA9318AD448EF401C0549
:1062B0006F08E2F0DDD2941A484FCFD0D214DFF24B
:1062C000047F0842B00D0F09B2600F260047F41298
:1062D00051F1514251818387F40FDC0F7CFF5F083D
:1062E000423FF2DDD294DAD2B42AE224A2D88BF46F
:1062F0000EC450F050211852F1524F318287528112
:106300008387F41C55F1555251828731875581831B
:1063100087F40848F130F40CDF2D4DA9F4F4084857
:10632000F131F0602113DF514F8A42EF40FC040F3E
:1063300018E210151F15237848EF20152F15237824
:10634000487FF15D251525781873A848F4F4084AAC
:10635000F152F404F5F41C4AF15551873182874F0C
:10636000328287ACF0002213E0E3DD0FDE0000266E
:1063700042EF30EC141F35AF040F2122713C121391
:10638000EF24DF02458FF08D444FEFD10215EF145B
:1063900073682AA22392D80295080F2202F23D27A1
:1063A00032423323A228F40F48000025020F2312A3
:1063B000F1CD10361B7012F4F408CD2D50F404F515
:1063C000F408C52D50F0402206C44EF050220C4275
:1063D000F14E3187F40ADD0EC44FF0602208BE2D65
:1063E0004BF40ADC0EC458F40ADC0EC453F40FDD7F
:1063F0000F11FF0F21020F27B2607F020049F4083E
:10640000FB0C61F40ADD0EC447F080220BF642005B
:106410005044EFD152148F200040322B35103535C7
:10642000A742FFD0FD40F5FD3007F030240BF626E3
:106430000060453F51CC906574382B3510F0312405
:106440000BF64D0450458FF01E10448FF01E104483
:106450008FF01E1044CFF0DD62954A4F4FD1621588
:106460002FB223D26295080F4422D16215DF32D4B5
:10647000629548FFD0FDB093FD3503F050240DDF49
:1064800042328A414FFFC0FD2024008025F40FF5E1
:106490000F29000047020F4682F13D1B0003F40F55
:1064A000EDFF0F46020F477221142F14232814A367
:1064B000488387F40FDD0F81000051020F4982E00D
:1064C000DBB244AFC0ED408C45CFF1CD90351B70B1
:1064D00012F40F24DE0F80404F504FAFC0ED403C10
:1064E00045FFD0FDF003002025F000251542F142C4
:1064F00031424F8A3178080F5132013EDEFDC0F73C
:10650000FF9024F0202518DF424F46308A2D78A8CE
:1065100038F4F412DE2331F142318287F40EC723BE
:1065200031F22D50F030251ADF424F8A12331B70A2
:1065300012818BF4F423C5225B2208010024B3529C
:10654000039128D2259248FFD0FDC004005025F0C9
:10655000402513DF0C59B3012711484F6F512C64AC
:106560002AA22392D80295484F504F8FF01E100454
:106570000F5582F13D1B0003F40FEDFF0F55020F85
:1065800056C2F1CD90351B7012F40FE3DD6F8140E0
:10659000AF50EF40FC040F57F2C0FDC00100802552
:1065A000F40FDD0F99FF0F55020F5892518C4000E8
:1065B00040322B35102D4A89F404DBF09025084237
:1065C000F131F40FDD0F63FE0F51020F60822014D2
:1065D000FF44FFD0FD40E4FF1025F0102608BE2D3B
:1065E0004BF40ADC0EC458F40FDC0F1700006242B3
:1065F000AFD0ED40FC040F62C2F11E002422639470
:1066000043632312DF9244CFF11E0024226394439C
:10661000632412DF72052F62F2F0CD40C25714F4EA
:10662000F40FC50C24B3520341FFD0FDE0290096BE
:1066300029F404F5F40BC5B30121404FB00D0F64EC
:1066400032013EDEFDB0F2FF1026F408DF4AF4F41A
:106650000FC50C57B3520341AFD0ED405C45AF506E
:10666000EF40FC045F65E2924B03007C4531AF9440
:10667000126FA7A428760A00104A878AD2080F71E1
:106680008291FB0A0000615331DF1294021F7132C4
:10669000013EDEFD2009005027F01227114BF12D9D
:1066A00041B3F00341CFF1BDC47025A828F40F3FDA
:1066B000000074020F72D2F0BD04A318F4F41FC5D9
:1066C0004BA2B3520321A2032292D81294080F7452
:1066D000D2C01736F5F14BF409BA3000000F75A29D
:1066E000B0146F2748FFD0FD80F9FF2027F08028E5
:1066F0001AB9AD00002035F32D41434C29F0902804
:106700000857F130F41ADF2D413636A722E222A2D3
:1067100028F4F40857F143F000291ADF2D413636EA
:10672000A7223222A228F4F40C57F14C31ADF0101C
:10673000290ADF5781F4F40C57F12D41A5F03029D7
:106740000B7C521F7F459FA0FB0000F050290BF6E9
:10675000FFFF8F455FF13D1B80030B50A348F4F40E
:106760000ECC2D4BF20C99F404DBF404F5F408EF95
:106770000141F40FC50C24B35203016F99A24014D8
:10678000CF6049AFC0ED40EC44FFC0FD7001009701
:1067900029F40ADD0EC44FF0972915DFB30138B094
:1067A00000358A444FEFC0DCB224CF90494FB04D42
:1067B0004F504F8FF01E1044FFD0FDB00B00023041
:1067C000F098290FDC0FA4FF7F9942BF503C1B10AB
:1067D00002F40ADD0EC44FF09929084FF176F42532
:1067E000DF0C577C4551C720A4288BF40F6DCE5F7A
:1067F00004000F00F350FC243A2B3510F425DF0C75
:10680000617C4551C750A4288BF40F3AF40F054220
:10681000FF50FFD041FF4020F0023008BE2D43F46E
:106820000FC50C24B3520341FFD0FD303BFF302095
:10683000F0004009C2FFFF0F5F44B45494350502D5
:10684000C2200E00203122400807002B093204E04C
:10685000922043003209520530932044004607C17C
:10686000E5551063093204D0962043007007E2B466
:1068700099204300A10701229A205400A309220471
:106880005044C4548405020282200E00203122406C
:10689000582A01F001070000F04D00BC009F0100E4
:1068A00000A402D022B01E001D03EC01F042D0294A
:1068B000001D05BE02D062808600FF00F40EF04B82
:1068C00054C454445514F045445041525345240790
:1068D0005B444455844525D046494C45535A5203A0
:1068E0009BE43455244545D05245504C4143450521
:1068F0003B55142435846410FF010B1005C494E645
:106900005606C20C0152F466C61F02BB43444546FC
:1069100048494C4D50525354DC30103F206DC01349
:1069200004AE4E6E616D653AEC6030436D643ABC06
:1069300072A04F4B20746F2044656C657456F6034B
:1069400092F5E2A4C30C0892E514C51909CE7E4362
:106950006D642053747267ACA190576F726B696E4F
:10696000672E2E2EECB030446F6E65FC9F960505A9
:1069700013B1311521C11B73B8A61153013B1BA4E0
:106980004345540412D50B30E19216040043010034
:10699000802A0400F6284305403900D8AE8D411105
:1069A000310686DF4D01470BF8959B402CF71CF80C
:1069B00038BD10732C31759330A30380452F6FAD14
:1069C000C602C707F8639F40E70DCC011133575348
:1069D0004884EAD111E0747C81BF311B6854B0CC8B
:1069E00040C11F15878F4A01703186CD230FB9042E
:1069F000604500488B95D603A504504400588B94FD
:106A00009602D8B88B811DF01A171F36107B04B080
:106A10004100488B94F83514106F872FF82F73714D
:106A2000C87F4211570D5764E756D51B6F872FF863
:106A3000F372819773C11414D70AF831BDA01F8D6A
:106A4000181D73F199F5C21A143114384DF8247ACF
:106A50001185E385D15E5C5CC114340C41E11013F7
:106A6000F862B1111F872F411347F8F3721110F12B
:106A70006FF912B4873B0581EA28333600F5A14C43
:106A8000F8807341124A4F264A4F20973ED89A9376
:106A9000101637EE78F180ED541978D81B736031F9
