:020000040000FA
:080000008A8E219F000E0AD038
:0400080080EF04F091
:08001800C0EF04F0600E0E01C0
:10002000D86F000EDA6F000EDC6F080EDE6F1F0E49
:10003000DD6F0E01E59D0F018A9C8A8E219F208F26
:100040000E01170EB56F090EFD6F0F010A0E9F6F9F
:10005000900E9D6F240E9E6F400E9B6F030E9C6F43
:10006000819C818E9D888FAE0DD0F66E0A0EF76E44
:1000700000D0000EF86E0900F53C00EF05F0090015
:10008000F53CFBD720EE00F019D90F0AFDE10F0E69
:1000900010D900EE04F0086A11D90F0AF8E00250F6
:1000A000040A07E00250050A01E108D902C0ECFF8A
:1000B000F3D710EE05F0006A016AEDCFF4FFE650C9
:1000C0003CD8E250EA62FBD7E150E962F8D7015030
:1000D000F462DAD70050EF62D7D7006A016A06509F
:1000E000F66E7E6E0750F76E7F6E08C0F8FF00EE6A
:1000F0000BF01F0E086403D0818C818E02D0819C8E
:08010000818E0A0E0560C0D7D4
:10011000F9500544F92627D02FD039D04FD079D0C7
:10012000A5D0A5D0A5D0A9D7FF000400F2BA12002F
:100130008FBEFCD78FAEFED71200011800C001F0B1
:10014000006EE83A0F0B001A0038F00B011A003865
:10015000E844011AE00B011A001A12000008010518
:10016000FF20000000005C0EF66E010EF76E000E20
:10017000F86E0A0E0A6E0B6A0900F5508ED8DDDFA4
:100180000A06000E0B5A0A500B10F6E17FD0090048
:10019000F550D3DFF6507F0BFAE100504DEC01F043
:1001A00001504DEC01F00A06000E0B5A0A500B10DC
:1001B000EEE170D0FF00FF00FF00FF00800EF6169A
:1001C000000EF65C000EF758020EF85802E6816A3F
:1001D00014D0000EF65C000EF758000EF8580CE62E
:1001E000000EF65C080EF758000EF85805E705D02B
:1001F000FF00FF00FF00FF007ED8800EF65EE86A79
:10020000F75AF85A0A2EDAD73DD0FF00FF00FF0058
:10021000FF00800EF616000EF65C000EF758020E78
:10022000F85802E6816A15D0000EF65C000EF75809
:10023000000EF8580DE6000EF65C080EF758000E9A
:10024000F85806E7816A05D0FF00FF00FF00FF00B5
:1002500051D8EECFF5FF0D00F6507F0BFAE10A0002
:100260003CD8090047D80A2ED4D70CD00BD00AD0DE
:10027000C40E816E0800EE50F5622DD80B000A2ED8
:10028000FAD700D0816A055008D857DF005005D84A
:10029000015003D8040E0DD8F7D6036E0F0A06E0FE
:1002A0000350040A03E00350050A02E1050E01D8D9
:1002B00003500400CDA9FED79A6E12009DB2FF0034
:1002C00004000E01CDABFCD79950026E1200FF0066
:1002D000FF00FF00816AF56E0C00819C818E818495
:1002E0008198F29E550E826EAA0E826E8182F28EE7
:1002F000819412001200819C818E81848188F29EFB
:10030000550E826EAA0E826E8182F28E8194120048
:100800000A000100080000010900010008000002C0
:1008100009000100080000040A00010008010000AE
:100820000A000100080000050A000100000200069D
:100830000A000100000200070000000C0200000096
:10088000436F7079726967687420323032312C207E
:100890004D61726B20412E20466C656D696E67005C
:0E0900000C0EFE6E480EFD6E0E01CA91100028
:0E0980000A0EFE6E100EFD6E0E01CA931000E0
:100A000037EC08F0A6EC08F00F0E8912889C8D9C3C
:100A10000001F29EF29C0E01CA91CA9300018D9CC6
:100A2000DAEC08F0E3EC08F0070E116E00EE30F09F
:100A3000000E2064CBD08DA4FED78DB8FED78DB626
:100A4000FED78DA6FED70F0E8E14006E010E00622B
:100A500038D0000EEBCF84FF8DB6FED7896A8D8C1F
:100A60008DA6FED70F0E8912010EEBCF84FF8DB637
:100A7000FED7896A8DA6FED70F0E8912020EEBCF24
:100A800084FF8DB6FED7896A8DA6FED70F0E891218
:100A9000030EEBCF84FF8DB6FED7896A8DA6FED7F5
:100AA0000F0E8912040EEBCF84FF8DB6FED7896A34
:100AB0008DA6FED70F0E89128D9C050EEBB086D049
:100AC000BCD7080E006280D08D8C8DB6FED78DA667
:100AD000FED70F0E8E14026E8DB6FED71D688DA642
:100AE000FED70F0E8E14E8380212D8900230126E24
:100AF0008DB6FED78DA6FED70F0E8E14036E146A28
:100B00008DB6FED703506A631D6A8DA6FED70F0E01
:100B10008E146B631D6AE8380312D890033001E32A
:100B2000128E136E139C8DB6FED7000000000000DD
:100B30000000146A0F0E8E14046E6C631D6A033479
:100B40000434DBCF0EF00E3413120EBE14800334C7
:100B500004340E6E8D9C060EEBCF0DF0000EEBCF25
:100B60000CF00E500DC0DBFF0A0E0C6016D0200EEC
:100B70000D260E50E82A0DC0DBFF090E0C600DD0CB
:100B80000E50200E0D260E50020F0DC0DBFF200E62
:100B90000D260E50030F0DC0DBFF050EEBB016D077
:100BA000080EE926114E12D0050EEBB20FD0070E3B
:100BB000EBCF1CF0000E1C6401D006D020B204D094
:100BC000050EEBB003D0E9D78DB437D710EE58F04F
:100BD000050EE3A20ED0C00E1C6E060EE3501CC024
:100BE000DBFF080EE126E00E1C6E060EE3501CC073
:100BF000DBFF0E01CA91CA9300010168F28EF28CEC
:100C000007D000018E6AF29E0E01D79F030000D725
:100C10000001126A136A146A116A0E01CDAB05D085
:100C20009DA403D08FBE01D0FF000E01CDBB2DEFE0
:100C30000AF00001122A03E3132A01E3142AD8B0B0
:100C4000112A11B8DED7E9D700010F0E8E14F28EEB
:0A0C5000006F0D0EFA6E0044F96EFD
:100D00002BD02AD0C6D02ED164D072D080D0E8D0DB
:100D100023D09CD1A2D120D0A1D11ED0A0D1A0D1CE
:100D200008EF06F001EF06F028EF06F008EF05F0F7
:100D30002DEF0AF02FEC0EF036EC0EF04AEC0EF030
:100D400069EC0EF0A4EC0EF0BEEC0EF0CEEC0EF062
:100D5000DBEC0EF0E8EC0EF05BD78DA459D71BB09E
:100D600057D78DB6FED7000EEBCF84FF896A8DA6CC
:100D7000FED70F0E8912010EEBCF84FF8DB6FED782
:100D8000896A8DA6FED70F0E8912020EEBCF84FF63
:100D90008DB6FED7896A8DA6FED70F0E8912030E77
:100DA000EBCF84FF8DB6FED7896A8DA6FED70F0ED6
:100DB0008912040EEBCF84FF8DB6FED7896A8DA60B
:100DC000FED70F0E8912040EEBB61B68080EE9263B
:100DD0001FD78DB6FED71DA01BD710EE20F00550F3
:100DE0000F0BE1268DA6FED70F0E8E14E66E10D7E0
:100DF0008DB6FED71DA00CD710EE20F008500F0BBB
:100E0000E1268DA6FED70F0E8E14E66E01D78DB6A5
:100E1000FED78DA6FED70F0E8E14056E8DB6FED7AB
:100E20001D688DA6FED70F0E8E14E8380512D890D7
:100E30000530186E8DB6FED78DA6FED70F0E8E1418
:100E4000066E1A6A8DB6FED706506A631D6A8DA6B5
:100E5000FED70F0E8E146B631D6AE8380612D89009
:100E6000063001E3188E196E199C8DB6FED700006E
:100E70000000000000001A6A0F0E8E14076E6C63EB
:100E80001D6A06340734DBCF10F01034191210BE7F
:100E90001A808DB6FED7000E1064BAD68D8C18C09D
:100EA000F6FF19C0F7FF1AC0F8FF080005B0F53AC1
:100EB000F5CF84FF8D9C8DA6FED78DB6FED7896AAF
:100EC000052A05A00B0005B0F53AF6CF18F0F7CFCC
:100ED00019F0F8CF1AF00F0E8912F5CF84FFEDD775
:100EE0008DB6FED78DA6FED70F0E8E14086E8DB66A
:100EF000FED71D688DA6FED70F0E8E14E838081297
:100F0000D8900830156E8DB6FED78DA6FED70F0E81
:100F10008E14096E176A8DB6FED709506A631D6A72
:100F20008DA6FED70F0E8E146B631D6AE83809126A
:100F3000D890093001E3158E166E169C8DB6FED73B
:100F40000000000000000000176A0F0E8E140A6EE9
:100F50006C631D6A09340A34DBCF0FF00F341612AC
:100F60000FBE17808DB6FED7000E0F6451D68D8C44
:100F700015C0F6FF16C0F7FF17C0F8FF080008B04D
:100F8000F53AF5CF84FF8D9C8DA6FED78DB6FED7A2
:100F9000896A082A08A00B0008B0F53AF6CF15F0C8
:100FA000F7CF16F0F8CF17F00F0E8912F5CF84FFA8
:100FB000EDD78DA42DD68DB6FED78DA6FED70F0EFC
:100FC0008E14026E8DB6FED71D688DA6FED70F0E4D
:100FD0008E14E8380212D8900230126E8DB6FED709
:100FE0008DA6FED70F0E8E14036E146A8DB6FED733
:100FF00003506A631D6A8DA6FED70F0E8E146B63B5
:101000001D6AE8380312D890033001E3128E136E84
:10101000139C8DB6FED70000000000000000146A8B
:101020000F0E8E14046E6C631D6A03340434DBCF20
:101030000EF00E3413120EBE1480060EE3CF0DF028
:101040000E500DC0DBFF080EE126E2D58D8C000EA0
:101050000F62DED5016A8D9CDBD5DAD5D9D5D8D51E
:101060008D8CDAEC08F0E3EC08F08D9CD1D40E0105
:10107000FF0EE16FE26FE36FE46FE56FE66FE19FF4
:10108000E195E1910F01836B846B856BFF0E886F97
:10109000896F8A6F0F01E00E116FF00E196F000E4D
:1010A000216F106B186B206B2D6B0F6B176B1F6B09
:1010B000FF0E0E6F166B1E6FFF0E0D6F156F1D6FFF
:1010C000600E0E01D86F000EDA6F000EDC6F080E96
:1010D000DE6F1F0EDD6F0F011F0E8816CF0E8916F3
:1010E000000E8A160E01E59D0F018A9C8A8E219FB3
:1010F000208F0E01170EB56F090EFD6F0F010A0E3E
:101100009F6F900E9D6F240E9E6F400E9B6F030E7F
:101110009C6F0F01F28B0E01BA81BA930F010A99ED
:101120000B890C990A950B950C850E01040EA16F85
:10113000020EA26F0E01CA91CA910F01F291F283C1
:101140000E01C281C283819C818E12000001000EBB
:10115000206E080E080DF3CF11F0080EF76E000E8A
:10116000F66E00EE30F00900F550EE6E112EFBD752
:1011700000EE30F0070E116E050EEBB212D0070E26
:10118000EBCF1CF01C421C421C42000E1C6202D021
:10119000100E1C6E060E1CC0EBFF080EE926112E69
:1011A000EBD7060EE9261C0EEF6E080EE9261D0E83
:1011B000EF6E12000001016A1D6A1B6A00EE30F03A
:1011C00010EE30F0120020EEE0F0200EDB6AE82C8A
:1011D000FDD7DB6A120054797065203F20666F727C
:1011E0002068656C700D0D0000003F200D524F4DC2
:1011F000205B736C6F742073697A6520626C6F6317
:101200006B5D0D000000504C55472059206F722037
:101210004E0D0000455241534520626C6F636B20B8
:101220000D000000494D41474520626C6F636B2003
:101230000D0000004C41535420736C6F74200D005E
:101240000000484152442059206F72204E200D006A
:101250000000434F4D4D49542059206F72204E20BD
:101260000D000000515549540D0D000051554954D1
:101270000D4279650D0D0000524F4D2000003136B2
:101280004B20000033324B20000036344B2000004E
:1012900043484950200000000D0D524F4D204C494D
:1012A00053540D0000003020000031200000322097
:1012B00000003320000034200000352000003620DC
:1012C0000000372000004C41535400004841524474
:1012D00000004348495020000000454F4D202000A9
:1012E0000000434F4D4D49543F2028592F6E29206F
:1012F00000000D436F6E6669726D65640D0D000030
:101300000D43616E63656C6C65640D0D00000D43EB
:101310006F756C646E2774206572617365207365E8
:1013200063746F720D0D0000494D41474520000068
:101330004572726F722077726974696E6720776F79
:1013400072640D0000004552415345200000457273
:101350006173696E672E2E2E0D000000446F6E655E
:101360000D0000004572726F722065726173696EC4
:101370006720736563746F720D0000004C41535415
:101380002000000048415244200000000D486172D6
:101390006420524F4D2070726573656E740D0000AD
:1013A0000D4861726420524F4D206E6F7420707230
:1013B0006573656E740D0000584543555445202DE6
:1013C000205472616E736665722050726F6365732C
:1013D000736F7220436F6E74726F6C0D5741524E73
:1013E000494E4721204D616B6520737572652076EB
:1013F000616C69642050494320636F6465206973A0
:1014000020696E20626C6F636B203021210D28599A
:101410002F4E29200000504C554720524F4D73202D
:10142000494E3F2028592F4E292000000D4D61695B
:101430006E20524F4D7320706C756767656420692C
:101440006E0D00000D416C6C20524F4D7320756E77
:10145000706C75676765640D00000E01270E0F0143
:10146000F29EF29C0E01CD9B99CFE8FF0001D60EB3
:10147000F66E110EF76EF86A22EC0EF00F019DA2C7
:1014800002D09D9E9D8E0E01CDABFED799CFE8FF79
:101490000001216E510E216201D04ED0710E2162E9
:1014A00001D04AD0500E216201D052D0700E21627C
:1014B00001D04ED03F0E216201D075D0480E21627E
:1014C00001D0C8D0680E216201D0C4D04C0E216278
:1014D00001D00DD16C0E216201D009D1520E2162D2
:1014E00001D096D2720E216201D092D2430E2162B7
:1014F00001D070D1630E216201D06CD1450E216202
:1015000001D01CD1650E216201D018D1490E216293
:1015100001D0C5D1690E216201D0C1D1580E21621E
:1015200001D07BD0780E216201D077D00D0E2162E0
:10153000A5D72FEC0EF0A2D700016C0EF66E120E9E
:10154000F76EF86A22EC0EF0F28EF28C08EF06F0DD
:10155000160EF66E140EF76EF86A22EC0EF00E01FF
:10156000CDABFED799CFE8FF0001226ED4DBF0E3CC
:101570000E01CDA9FED799CF9AFF0001E8A00AD0AD
:10158000010E206E2C0EF66E140EF76EF86A22EC29
:101590000EF074D7206A440EF66E140EF76EF86AD9
:1015A00022EC0EF06BD70001EA0EF66E110EF76E0C
:1015B000F86A22EC0EF0060EF66E120EF76EF86A5E
:1015C00022EC0EF0140EF66E120EF76EF86A22EC94
:1015D0000EF0240EF66E120EF76EF86A22EC0EF084
:1015E000340EF66E120EF76EF86A22EC0EF0420E12
:1015F000F66E120EF76EF86A22EC0EF0520EF66ED0
:10160000120EF76EF86A22EC0EF0640EF66E120EF1
:10161000F76EF86A22EC0EF031D70001B80EF66EC4
:10162000130EF76EF86A22EC0EF00E01CDABFED76A
:1016300099CFE8FF0001226E22506DDBF6E3E8B09F
:1016400000EF10F0000EF66E130EF76EF86A22EC43
:101650000EF014D70001840EF66E130EF76EF86AC2
:1016600022EC0EF00E01CDABFED799CFE8FF0001C2
:10167000226E0D0E22621BD00E01CDA9FED799CF8E
:101680009AFF00018C0EF66E130EF76EF86A22ECCC
:101690000EF000EE30F0080E050DF3CFE8FFE9265E
:1016A000050EEB82080EE926050EEB82E7D62250E6
:1016B00032DBD0E3E8B0E0D70E01CDA9FED799CF59
:1016C0009AFF0001A00EF66E130EF76EF86A22EC78
:1016D0000EF000EE30F0080E050DF3CFE8FFE9261E
:1016E000050EEB92080EE926050EEB92C7D6000117
:1016F0007C0EF66E130EF76EF86A22EC0EF036ECE6
:101700000EF0226E0E01CDA9FED799CF9AFF0D0ED5
:10171000CDA9FED7E8CF9AFF010E116E00EE30F092
:10172000050EEB901150226202D0050EEB80112ABB
:10173000080EE926070E1162F3D7A0D60001460E67
:10174000F66E130EF76EF86A22EC0EF04AEC0EF00D
:10175000226E0E01CDA9FED799CF9AFF0D0ECDA90D
:10176000FED7E8CF9AFF00014E0EF66E130EF76E0D
:10177000F86A22EC0EF0F66AF86A000E226205D0D2
:10178000400E116E200EF76E0BD0800E116E22509F
:10179000E83AD890E836E836F76EF86A01E3F88060
:1017A000EDDA0FE2800EF626000EF722112EF8D7A2
:1017B00000015C0EF66E130EF76EF86A22EC0EF066
:1017C0005DD60001640EF66E130EF76EF86A22EC19
:1017D0000EF054D60001E20EF66E120EF76EF86AA5
:1017E00022EC0EF00E01CDABFED799CFE8FF000141
:1017F000226E0D0E226201D02DD00E01CDA9FED792
:1018000099CF9AFF0001F20EF66E120EF76EF86A8B
:1018100022EC0EF0080EF76EF66AF86ABFDA080ED0
:10182000F76EF66AF86AAADA28E2C5DA400E116E97
:1018300000EE30F0080EF76EF66AF86AEECFF5FFAC
:101840000D00112EFBD7080EF76EF66AF86AC0DAA3
:101850001DE214D622505FDAC5E3E8B0CED70E0100
:10186000CDA9FED799CF9AFF0001000EF66E130E98
:10187000F76EF86A22EC0EF001D600010E0EF66E3D
:10188000130EF76EF86A22EC0EF0F8D50001300E58
:10189000F66E130EF76EF86A22EC0EF0EFD500012B
:1018A000280EF66E130EF76EF86A22EC0EF04AEC74
:1018B0000EF0226E0E01CDA9FED799CF9AFF0D0E24
:1018C000CDA9FED7E8CF9AFF000101EE00F0116A22
:1018D000000E226205D0F66A200EF76EF86A0AD072
:1018E0002250E83AD890E836E836F76EF86A01E315
:1018F000F880F66A0E01CDABFED799CF23F0000138
:101900000D0E236201D025D00A0E236201D021D012
:101910001A0E236201D073D0235069EC0EF0EAE274
:10192000246E243A0E01CDABFED799CF23F00001EF
:101930000D0E236200D00A0E236201D0F3D723508C
:1019400069EC0EF0EFE2241224C0EFFFE92A112A1D
:10195000D1D7000E116453D00E01CDA9FED7130EBE
:101960009A6E000101EE00F0EFD912E20E01CDA94E
:10197000FED7110E9A6E000101EE00F00E01CDAB04
:10198000FED799CF23F000010A0E2362C1D7B2D748
:101990000001300EF66E130EF76EF86A22EC0EF0B0
:1019A0000E01CDA9FED7110E9A6E0E01CDABFED75A
:1019B00099CF23F000010D0E2362116A112A030E44
:1019C000116001D0E5D70001300EF66E130EF76EF0
:1019D000F86A22EC0EF00E01CDA9FED7110E9A6E18
:1019E0000001300EF66E130EF76EF86A22EC0EF060
:1019F0000E01CDA9FED7110E9A6E00013FD5000150
:101A00005C0EF66E130EF76EF86A22EC0EF036D509
:101A10000001780EF66E120EF76EF86A22EC0EF0E8
:101A20000E01CDABFED799CFE8FF0001226E0D0E5F
:101A3000226201D08ED0300E2264F2D7380E22609E
:101A4000EFD70E01CDA9FED799CF9AFF200ECDA9D1
:101A5000FED7E8CF9AFF300E225E0E01CDABFED747
:101A600099CFE8FF0001236E0D0E236201D071D0E3
:101A7000310E23620CD07E0EF66E120EF76EF86AEF
:101A800022EC0EF00A0E236E080E246E3BD0330EAD
:101A900023620CD0840EF66E120EF76EF86A22ECFA
:101AA0000EF0090E236E080E246E2CD0360E236223
:101AB0000CD08A0EF66E120EF76EF86A22EC0EF05B
:101AC000080E236E080E246E1DD0630E23620CD008
:101AD000900EF66E120EF76EF86A22EC0EF00A0EF9
:101AE000236E000E246E0ED0430E2362B6D7900EE6
:101AF000F66E120EF76EF86A22EC0EF00A0E236EE6
:101B0000000E246E4AEC0EF0256E0E01CDA9FED714
:101B100099CF9AFF0D0ECDA9FED7E8CF9AFF22509C
:101B2000E806080D00EE30F0F350E926000E23C061
:101B3000EBFF040E24C0EBFF070E25C0EBFF254290
:101B400025422542000E25642588060E25C0EBFFA0
:101B500095D40001980EF66E120EF76EF86A22EC1C
:101B60000EF000EE30F0070E116E310E1C6E780E86
:101B7000F66E120EF76EF86A22EC0EF01C502FEC87
:101B80000EF0200E2FEC0EF01C2A000EEBCF0CF006
:101B90000A0E0C6208D07E0EF66E120EF76EF86A10
:101BA00022EC0EF012D0090E0C6208D0840EF66EF4
:101BB000120EF76EF86A22EC0EF007D08A0EF66E5F
:101BC000120EF76EF86A22EC0EF0070EEBCFE8FF6C
:101BD000300F2FEC0EF0200E2FEC0EF0040EEBA6C3
:101BE00012EC0EF0040EEBB61AEC0EF0050EEBA0A4
:101BF00008D0C60EF66E120EF76EF86A22EC0EF0E2
:101C000009D0EBA207D0CC0EF66E120EF76EF86A72
:101C100022EC0EF00D0E2FEC0EF0080EE926112E20
:101C2000A6D72CD4D20EF66E120EF76EF86A22ECFE
:101C30000EF01200DA0EF66E120EF76EF86A22EC53
:101C40000EF01200819C818E0900000E0001F564E7
:101C500012000E01CDA9FED7F5CF9AFFF3D70E01E2
:101C6000CDA9FED7E8CF9AFF000112000E01CDAB3F
:101C7000FED799CFE8FF00011F6E1B0E1F6201D037
:101C800013D0300E1F64F2D7380E1F60EFD7300E1E
:101C90001F5C12000E01CDABFED799CFE8FF00010B
:101CA0001F6E1B0E1F620CD0000EF66E130EF76E29
:101CB000F86A22EC0EF0140EFE6E7C0EFD6E120021
:101CC0002F0E1F64E7D7380E1F60E4D7300E1F5C5D
:101CD00012001F6E00012F0E1F641BD03A0E1F60F2
:101CE00004D0300E1F5CD8901200400E1F6411D03B
:101CF000470E1F6004D0370E1F5CD8901200600E94
:101D00001F6407D0670E1F6004D0570E1F5CD89069
:101D10001200D88012001C6E590E226201D00ED023
:101D2000790E1C6201D00AD04E0E1C6201D003D085
:101D30006E0E1C6206D0000ED8801200010ED880F4
:101D40001200000ED8901200EECFF5FF0D00112EFC
:101D5000FBD70A00819C818E81848198F29E550E6A
:101D6000826EAA0E826E8182F28E8194090081B603
:101D700002D0D8901200D88012001200D890819C16
:101D8000818E81848188F29E550E826EAA0E826EAB
:101D90008182F28E819481B6D8801200819C818EDE
:101DA00012EE00F0800E116E0900F5CFE6FF112E45
:101DB000FBD7D8901200819C818E12EE00F0800E2D
:101DC000116EE6CFF5FF0D00112EFBD7D890120053
:101DD000D890819C818E81848198F29E550E826E6E
:101DE000AA0E826E8182F28E819481B6D880120012
:101DF000286329204D61726B20412E20466C656D51
:081E0000696E672032303231B7
:020000040030CA
:010000008C73
:01000100FFFF
:010002003FBE
:01000300FEFE
:010004009F5C
:01000500FFFB
:01000600FFFA
:01000700FDFB
:01000800FFF8
:01000900FFF7
:01000A00FFF6
:01000B00FFF5
:00000001FF
