:020000040000FA
:100000000EEF00F0FF00FF0080EF04F0FF00FF00A4
:10001000FF00FF00FF00FF00C0EF04F082EF03F0DD
:1000200063C000F064C001F04AD021EC02F002C0CD
:1000300014F003C015F06BD030EC03F002C014F0E4
:1000400003C015F064D08CEC00F002C014F003C0C3
:1000500015F05DD094EC01F002C014F003C015F06F
:1000600056D00BEC03F002C014F003C015F04FD0D3
:10007000BBEC02F002C014F003C015F048D05CECF9
:1000800002F002C014F003C015F041D0DCEC01F026
:1000900002C014F003C015F03AD045EC01F002C0E4
:1000A00014F003C015F033D0010E696F010E2A6EF3
:1000B00001D06969000E156E0A0E146E28D0000179
:1000C0006051126E136A1350000AD8A4F2D712506E
:1000D000000AD8B4AAD7010AD8B4AED7030AD8B454
:1000E000B2D7010AD8B4B6D7070AD8B4BAD7010A2A
:1000F000D8B4BED7030AD8B4C2D7010AD8B4C6D779
:100100000F0AD8B4CAD7010AD8B4CED7D2D714C0F0
:1001100010F015C011F0120065C0F6FF66C0F7FFC1
:1001200067C0F8FFA40E816EF8500EE1000EF65C79
:100130000A0EF758D8B008D0FE0E0001696F000E05
:10014000036E0A0E026E1200000E096E000E086E9B
:1001500030D00850690FD96EDA6ADF50F56E000EA4
:10016000F65C000EF758020EF858D8B0E5D70D002F
:10017000F6CF04F07F0E0416D8B415D0FF0E046E2F
:10018000FF0E056E20EE61F0DECF06F0DDCF07F04A
:1001900004500626055007220850061808E10950A9
:1001A0000718D8A404D00A00C0EC03F00900084ADC
:1001B000092A00016151085C62510958D8A0C9D7C9
:1001C000010E696F000E006E000E016E000E036ED0
:1001D0000A0E026E12009EA2FED7E5EC03F0B5EC0B
:1001E00003F0166E16501A6E1B6A000E1B6E000E80
:1001F0001A6E000E196E090E186E23D0B5EC03F0BE
:10020000176E1A50600FD96EDA6A17C0DFFF1A4AEC
:100210001B2A040E1A181B10D8A413D0020E0001BA
:100220006019D8B408D0050E6019D8B404D0070EF0
:100230006019D8A406D020EE61F0DE501826DD50FB
:10024000192218501A5C19501B58D8A0D7D710EC97
:1002500000F010C018F011C019F0550EDEEC03F0DC
:10026000000E1B6E000E1A6E09D01A50600FD96E68
:10027000DA6ADF50DEEC03F01A4A1B2A18501A5CC7
:1002800019501B58D8B0A7D7F0D765C0F6FF66C085
:10029000F7FF67C0F8FF800E816E000E286E000E1B
:1002A000276E61C00CF062C00DF00E6A0F6A63C069
:1002B00004F0056A066A076A05C007F004C006F084
:1002C000056A046A04500C2605500D2206500E22C1
:1002D00007500F22000E086E000E096E000E0A6E07
:1002E000000E0B6E0ED00900F5502726000E2822B6
:1002F0000900F5502826020E0826000E09220A22BF
:100300000B220C50085C0D5009580E500A580F5023
:100310000B58D8A0E8D727C069F028C06AF0000EB3
:10032000036E0B0E026E120065C0F6FF66C0F7FF8B
:1003300067C0F8FF800EF614046EFF0EF714056E0A
:10034000FF0EF814066E06500CE10A0E055CD8B0DC
:1003500008D0FE0E0001696F000E036E0A0E026ED9
:100360001200000E086E000E076E14D0000EF65C30
:10037000000EF758020EF858D8B0EBD7940E816EE5
:10038000C0EC03F0800EF626000EF722000EF822D5
:10039000074A082A00016151075C62510858D8A039
:1003A000E5D7010E696F000E636F000E646F000EDB
:1003B000036E0A0E026E120065C0F6FF66C0F7FFFC
:1003C00067C0F8FFF8500EE1000EF65C0A0EF75811
:1003D000D8B008D0FE0E0001696F000E036E0A0E41
:1003E000026E1200100EF65C000EF758200EF85840
:1003F000D8A002D0C40E01D0840E816E000E066E0D
:100400000BD00650690FD96EDA6ADF50F56E0C001A
:10041000C0EC03F0F62A062A0650046E056A0001B5
:100420006151045C62510558D8A0EBD7010E696F89
:10043000000E006E000E016E000E036E0A0E026EBC
:100440001200010E0001696F010E6A6F000E6B6FE2
:10045000010E6C6F000E6D6F000E6E6F3F0EF86E2A
:10046000F768FE0EF66EC00E816E0900F5CF6FF0D4
:100470000900F5CF70F0000E0001716F000E726F71
:10048000800E736F800E746F300EF86E000EF76E74
:10049000000EF66E0C0E046E09000450690FD96E42
:1004A000DA6AF5CFDFFF042A0F0E0464F5D7000ED9
:1004B000036E190E026E120065C0F6FF66C0F7FFEC
:1004C00067C0F8FFC00E816EF8500EE1000EF65CBA
:1004D0000A0EF758D8B008D0FE0E0001696F000E62
:1004E000036E0A0E026E1200000E066E08D009009E
:1004F0000650690FD96EDA6AF5CFDFFF062A06507B
:10050000046E056A00016151045C62510558D8A06F
:10051000EED7090E6125026E000E6221036E1200F5
:10052000000E836E000E846E000E856E88688968EA
:10053000BF0E8A6E7F0E0F01216F19691169000EBF
:100540002D6F000E186F000E106F800E206F000EC2
:100550000F6F000E176F000E1F6F0E6916691E6970
:100560000D6915691D69080E2A6F170E0E01B56F0A
:10057000090EFD6F120065C07EFF66C07FFF040E8E
:10058000816E000E066E11D081B2FED76551062431
:100590007E6E7E50D8B47F2A0650690FD96EDA6A13
:1005A000DF50806EC0EC03F0062A0650046E056A28
:1005B00000016151045C62510558D8A0E5D7010ED5
:1005C000696F000E036E0A0E026E1200090E9F6E16
:1005D000900E9D6E240E9E6E400E9B6E030E9C6EC2
:1005E000000E026E000E036E000E046ED0EC03F0DF
:1005F000000E026E000E036E000E046EC9EC03F0D6
:10060000000E026E000E036E000E046ED7EC03F0B7
:10061000000E296E120065C07EFF66C07FFF000ECF
:10062000816E000E066E0BD081800650690FD96E68
:10063000DA6A80CFDFFF7E3E01D07F2A062A06508D
:10064000046E056A00016151045C62510558D8A02E
:10065000EBD7090E6125026E000E6221036E1200B7
:1006600065C0F6FF66C0F7FF67C0F8FF800E816EB9
:10067000000E056E000E046E09D009000450690FCB
:10068000D96EDA6AF5CFDFFF044A052A000161510D
:10069000045C62510558D8A0F0D7090E6125026E9E
:1006A000000E6221036E1200000EF66E0A0EF76E47
:1006B000000EF86E800E816E0900F528D8A402D0D5
:1006C000010E1200030E266EE80E256E2506D8A038
:1006D000260625502610D8A4F9D78FAEF1D7000EE4
:1006E0001200000E006E000E016E54EC03F0E806DE
:1006F000D8B4EBEC00F0000EFC6E000EE06E00EFE4
:1007000005F0120000EE60F0890EEE6AE806FDE1E9
:1007100000EE25F0080EEE6AE806FDE10001EAEFC2
:1007200003F0000E0E01E16F000EE26F000EE36FAA
:10073000000EE46F000EE56F000EE66F120091EC04
:1007400003F090EC02F0AAEC03F0E6EC02F071EC9E
:1007500003F01200600ED86F000EDA6F000EDC6F2F
:10076000080EDE6F000EDD6F12000E01CDABFDD75F
:10077000000E296E9DA202D09D989D88995012006E
:100780000F010050826F0150826F818200F000F0F3
:10079000120002C01FF003C020F004C021F01200BC
:1007A00002C022F003C023F004C024F0120002C0F3
:1007B0001CF003C01DF004C01EF01200026E0E01FA
:1007C000CDA9FDD702C09AFF12002A04D8A41200B6
:1007D000FF0012009FEC03F0FFD7FF00FF00FF00B7
:020000040020DA
:10000000FF0FFF0FFF0FFF0FFF0FFF0FFF0FFF0F80
:020000040030CA
:0C0000008CFFFFFF9FFFFFFFFFFFFFFFD3
:00000001FF
